:10000000880F0010914B0000AD4B0000B14B000079
:10001000B54B0000B94B0000BD4B00005E2AFEEF5F
:10002000000000000000000000000000C14B0000C4
:10003000C54B000000000000C94B0000B92D0000B6
:10004000D14B0000D54B0000D94B0000DD4B000028
:10005000E14B0000A92A00004D2A0000ED4B0000F2
:10006000F14B0000F54B0000F94B00005D31000042
:10007000014C0000054C0000094C00000D4C000034
:10008000114C0000154C0000194C00001D4C0000E4
:10009000214C0000254C0000294C00002D4C000094
:1000A000314C0000354C0000394C00003D4C000044
:1000B000414C0000454C0000494C00004D4C0000F4
:1000C000514C0000554C0000594C000001FDE1F579
:0400D0000500000027
:102000002DE9F04F87B004000D0000208DF814007A
:10201000002600275FF0000B0120049000200390B1
:10202000002001905FF0000ADFF88C070290DFF8D3
:102030008C07844204D1062000F004FC009019E0D3
:10204000DFF87C07844204D1082000F0FBFB0090FD
:1020500010E0DFF87007844204D1302000F0F2FB7A
:10206000009007E0DFF86007844203D1322000F0DF
:10207000E9FB009000980009009001208046B8F12B
:10208000100F3FD200208146B9F1100F34D20098D2
:1020900000FB08F019EB0801B0FBF1F00700B7FBFB
:1020A000F5F08346B7FBF5F005FB10706908814237
:1020B00001D21BF1010BBBF1030F1AD3BBF5803F1B
:1020C00017D2B7FBFBF00600B54202D3A81B82462D
:1020D00001E0701B8246029882450AD2CDF810803A
:1020E000CDF80C90CDF804B0CDF808A0BAF1000FEF
:1020F00002D019F10109C7E7BAF1000F02D018F1B7
:102100000108BCE7032000FB05F06421B0FBF1F0FF
:102110000299814231D2DFF8A806844215D1207B92
:1021200050F0800020730198000A207101982070FF
:10213000207B10F07F0020730498039911F00F01A9
:1021400051EA0010C0B2A06214E0207B50F0800081
:1021500020730198000A207101982070207B10F0F4
:102160007F0020730498039911F00F0151EA0010C9
:1021700084F8280001208DF814009DF8140007B0A1
:10218000BDE8F08F70B504000D00DFF83006844222
:1021900012D0DFF82C0684420ED0DFF828068442E5
:1021A0000AD0DFF82406844206D0BF217148784463
:1021B00000F5E17000F00CFC687900280FD0687918
:1021C00001280CD06879022809D06879032806D044
:1021D000C0216848784400F5CE7000F0F9FBA8797A
:1021E000002809D0A879012806D0C1216148784487
:1021F00000F5C17000F0ECFB2879002812D0287996
:1022000001280FD0287902280CD02879032809D07A
:102210002879042806D0C2215648784400F5AB70CE
:1022200000F0D6FBDFF89405844203D10121082099
:1022300000F031FBDFF88805844203D10121102032
:1022400000F029FBDFF87805844228D107202072AE
:1022500000202072207DC00702D520780600F9E713
:10226000802084F83000207D8006FCD5002084F892
:1022700030000020606000202073002020620020D9
:102280002074002084F84C00002084F854000020C2
:1022900084F85000207E0600207D06001AE007200A
:1022A000207200202072207DC00702D52078060011
:1022B000F9E7802084F83000207D8006FCD50020DE
:1022C00084F830000020606000202073002020622D
:1022D000207D0600DFF8F004844202D1002084F85B
:1022E000240029682000FFF78BFEDFF8D404844225
:1022F00004D1207B10F0C000060003E0207B10F02A
:10230000C00006006879002803D0022805D001D358
:1023100006E007E056F0010604E056F0020601E090
:1023200056F003062879002815D056F008062879BB
:10233000012806D00FD3032807D003D3042807D0E1
:1023400009E008E056F0100605E056F0200602E02D
:1023500056F03006FFE7A879012802D156F00406AE
:10236000FFE7DFF85C04844201D1267300E02673A6
:1023700070BD00BF502700004FF4165101600321CB
:1023800041710021017100218171704738B504004D
:102390000D00DFF82804844212D0DFF830048442B4
:1023A0000ED0DFF8200484420AD0DFF81C048442F7
:1023B00006D040F2CF1106487844143000F008FBF4
:1023C000DFF80804844201D1257000E0257031BD9A
:1023D000F426000010B50400DFF8E003844212D0B8
:1023E000DFF8E80384420ED0DFF8D80384420AD035
:1023F000DFF8D403844206D04FF4F47106487844E1
:10240000163000F0E5FADFF8C403844201D12078E9
:1024100000E0207810BD00BFAC260000F8B5040035
:102420000D001600DFF89403844213D0DFF89C03FC
:1024300084420FD0DFF88C0384420BD0DFF888038E
:10244000844207D040F2A1214748784400F58D70BE
:1024500000F0BEFAF6B2002E0AD0F6B2012E07D076
:1024600040F2A2214048784400F1FE0000F0B0FAAA
:10247000EDB2002D09D0022D0DD009D3042D10D0BE
:102480000CD3062D14D00FD315E00120070012E065
:10249000022007000FE0042007000CE008200700DE
:1024A00009E08020070006E04FF48070070002E09A
:1024B0004FF400700700DFF8140384421CD1EDB222
:1024C000002D2FD0EDB2012D2CD0EDB2022D29D050
:1024D000EDB2052D26D0EDB2062D23D0EDB2032DA1
:1024E00020D0EDB2042D1DD040F2BE211E4878440C
:1024F000763000F06DFA15E0EDB2002D12D0EDB29D
:10250000012D0FD0EDB2022D0CD0EDB2052D09D06A
:10251000EDB2062D06D040F2C2211348784448306F
:1025200000F056FAF6B2012E0BD1DFF8A002844279
:1025300003D160683843606014E0606838436060CD
:1025400010E0DFF88802844206D1606840F28F31E3
:10255000B9430840606005E0606840F20731B94364
:1025600008406060F1BD00BF5C25000070B504004C
:102570000D000026DFF84402844213D0DFF84C023D
:1025800084420FD0DFF83C0284420BD0DFF83802DF
:10259000844207D040F22D313648784400F1D6000D
:1025A00000F016FAE87800280FD0E87801280CD05F
:1025B000E878022809D0E878032806D040F22E31C6
:1025C0002C487844AE3000F003FAA878002809D0EF
:1025D000A878012806D040F22F312648784494305C
:1025E00000F0F6F92878002809D02878012806D0CC
:1025F0004FF44C711F4878447A3000F0E9F968785C
:10260000002809D06878012806D040F231311948F5
:102610007844603000F0DCF956F00106E8780028D4
:1026200003D0022805D001D306E007E056F04006AB
:1026300004E056F0800601E056F0C00668780128F4
:1026400001D156F004062878012801D156F002067F
:10265000A878012801D156F00806DFF870018442FD
:1026600003D116F0CF00207202E016F0CF002072E6
:1026700070BD00BF50240000002181700021C17096
:1026800001210170012141707047000038B504003C
:102690000D004A48844210D0DFF8300184420CD04B
:1026A0004848844209D04848844206D04FF47871A3
:1026B0001A487844663000F08BF9EDB2002D09D04D
:1026C000EDB2012D06D040F2E131144878444C308F
:1026D00000F07EF9EDB2012D10D13C48844206D1C4
:1026E00094F8300050F0800084F8300014E094F842
:1026F000300050F0800084F830000DE03348844210
:1027000005D194F83000002184F8301004E094F8EA
:102710003000002184F8301031BD00BFA823000034
:10272000F8B504000D0016002548844206D040F29A
:102730008B41204878447C3000F04AF9EDB2002DFE
:102740000CD0EDB2012D09D0EDB2022D06D040F231
:102750008C41184878445C3000F03AF9F6B2002E0B
:1027600009D0F6B2012E06D040F28D4111487844CE
:10277000423000F02DF9EDB2002D03D0022D07D02C
:1027800003D308E01020070005E04020070002E026
:1027900080200700FFE7F6B2012E03D1207C3843EA
:1027A000207405E0207CF94311F0F3010840207407
:1027B000F1BD00BF10230000A086010000C0004052
:1027C000000001400080094000C0094000000140B5
:1027D00010B4202801D2020001E0B0F1200220282C
:1027E0000ED2384B1B6803249440A343354C23601E
:1027F000344B1B6811FA02F42343324C23600DE082
:10280000314B1B6803249440A3432F4C23602E4B71
:102810001B6811FA02F423432B4C236010BC704751
:102820000100202904D20A00264B1B68180005E08D
:10283000B1F120031A00244B1B681800D04010F09F
:102840000300704770B504002048006805002000B0
:10285000FFF7E6FF0600002E05D0022E09D005D3B3
:10286000032E09D013E00420060010E0012006002A
:102870000DE0022006000AE01A2C03D01C2C01D027
:102880001E2C02D10620060001E008200600B5FB40
:10289000F6F5280070BDC9B2012907D10C4A1268AB
:1028A0000C4B03401A430A4B1A6009E0C9B20029D5
:1028B00006D1074A1268074B83431A40044B1A603B
:1028C00070470000A8C10F40ACC10F4000000010CD
:1028D000C4C00F40DEF7EFEF10B440B24109334AF5
:1028E000012310F01F04A34042F8213010BC7047B0
:1028F00070B52F484078801C040000200500611E40
:102900002C4800F04DFA2A496054641C2A4800788B
:10291000002810D1002C0ED02548295C2748FFF74D
:1029200035FD44F6206006003000461E0028FBD12D
:102930006D1C641EEEE770BD80B500F039F900F043
:1029400076FA00F0C6FA00F02DFB4FF47A7000F032
:102950001DFB00F03BF900F061F915480221017000
:1029600013480021417016483221017000F03BFAF3
:1029700000F056FB00F092FC00F0D3F900F0DBF918
:102980000B20FFF7A9FF00F0B1FC00F049FB00F0BD
:1029900064FE0C4800780228FBD100F0C9FCFFF768
:1029A000A7FF084800210170F3E7000000E100E004
:1029B0000409001005090010840A001000C000403E
:1029C000820A0010810A001080B5FFF7B5FF02BD32
:1029D000FEE750F8041B61B150F8042BD30744BF45
:1029E000A9F101039A18002342F8043B091FFAD108
:1029F000EFE7704710B440B24109DFF850230123DC
:102A000010F01F04A34042F8213010BC704710B4EE
:102A100040B24109DFF83823012310F01F04A3401E
:102A200042F8213010BC704740B2002809D540B2AE
:102A300010F00F02DFF81C33D218CB0002F8043C70
:102A400003E040B2C44ACB008354704738B500F06D
:102A500077F9C248FFF7BEFC0400E4B20D2C04D1A4
:102A6000BF480078401CBE490870BE480068050099
:102A7000BC4800680470BB480068401CB949086045
:102A8000B948B8490968884202D2B648B7490160D6
:102A9000B4480068B6490968884202D1B148056067
:102AA00001E000F048F931BD38B5B24800210170AD
:102AB00000F03CF9B048FFF78DFC0400AF48007807
:102AC000002859D0AD48007802280AD1E4B2062C7B
:102AD0006BD0E4B2152C68D01521A748FFF756FC3F
:102AE00063E000F090F9A6480068002813D1E4B232
:102AF000A4482018801CA4490860A44800680470F9
:102B0000A2480068401CA14908609D480068401C1C
:102B10009B49086049E09D48006804709B48006834
:102B2000401C9A49086096480068401C9449086017
:102B30009648006894490968884236D38F48022134
:102B4000017000F06CF99148006810F8015C8D4844
:102B50000078411C8B4800F023F9854204D10621FE
:102B60008548FFF713FC20E015218348FFF70EFC92
:102B700082480021017018E0E4B2022C0FD17F4896
:102B80000121017081487F4901607D480021016079
:102B90007F480078002808D000F039F905E0E4B259
:102BA000052C02D175480321017000F0BAF831BD3F
:102BB00080B57748002101707648FFF7DDFB764845
:102BC000FFF7DAFB7548FFF757FD01BD00B583B08D
:102BD00001208DF8020000208DF8040000208DF8FF
:102BE000030002208DF8010000208DF8000000A8ED
:102BF00000F018FE03208DF8010000A800F012FE7E
:102C000064495D48FFF7BEFA01215B48FFF73EFDCE
:102C1000012200215848FFF701FC07BD00B583B031
:102C200002208DF8020000208DF8040000208DF8AD
:102C3000030000208DF8010002208DF8000000A89C
:102C400000F0F0FD01208DF8010000A800F0EAFD81
:102C500002208DF8010000A800F0E4FD03208DF8AB
:102C6000010000A800F0DEFD05208DF8010000A89D
:102C700000F0D8FD06208DF8010000A800F0D2FD7C
:102C800007208DF8010000A800F0CCFD00208DF891
:102C9000020004208DF8010003208DF8030000A835
:102CA00000F0C0FD00221021022000F0E9FD082004
:102CB0008DF8010000A800F0B5FD01224FF48071ED
:102CC000022000F0DDFD4FF48071022000F0F8FDDD
:102CD00031492248FFF756FA30492048FFF746FCB1
:102CE00001211E48FFF7D2FC012201211B48FFF7FA
:102CF00017FD012202211948FFF712FD09210620C4
:102D0000FFF792FE012200211448FFF787FB1548C8
:102D100016490160164815490160114800210170EB
:102D200007BD80B50520FFF765FE01BD80B5052014
:102D3000FFF76DFE01BD80B50620FFF75BFE01BD0C
:102D400080B50620FFF763FE01BD000000E100E052
:102D500080E100E018ED00E000E400E00000014048
:102D6000800A00105C0A0010030800100400001024
:102D7000600A0010840A001000C00040810A0010A0
:102D8000740A0010040800106C0A0010700A001089
:102D9000820A00104C0A0010540A0010680A001041
:102DA00002000020002904D013785840521C491E0C
:102DB000F8E7C0B27047000080B56A480068401C60
:102DC000684908606748006867490978884209D3FC
:102DD000002000F0B5FD15216448FFF7D7FA6448DC
:102DE0000021017001BD80B500F0F4FD012000F06C
:102DF0007DFD002000F0A4FD012000F0C3FD594836
:102E00000021016001BD574800210160704780B575
:102E1000544800210160012000F092FD01BD80B501
:102E2000002000F08DFD4F480021016001BD80B5FC
:102E30005048012101704F484FF47A7141604E486B
:102E4000002101704C48012141704B480121C170A3
:102E500049480121817048480021017146484FF4DA
:102E60007A718160434A00215FF0402000F0A4FFA6
:102E700041495FF0402001F085F801BD10B5040024
:102E80003D4884603C495FF0402001F07BF85FF0F2
:102E9000402001F057F801215FF0402001F02CF8AC
:102EA00010BD80B500215FF0402000F04DFF0021F3
:102EB0005FF0402001F020F801BD80B500215FF0F7
:102EC000402000F003FF002801D0012000E0002096
:102ED00002BD80B529480121017028482849416078
:102EE000284801210170274801214170254801210E
:102EF000C1702448012181702248002101712148BC
:102F00004FF47A7181601D4A00211F4800F054FF80
:102F10001C491D4801F036F801BD10B504001948E0
:102F200084601849184801F02DF8174801F00AF894
:102F30000121154800F0E0FF10BD80B501211248C5
:102F400000F002FF0021104800F0D6FF01BD80B55F
:102F500001210D4800F0BAFE002801D0012000E058
:102F6000002002BD640A0010820A001000C0004068
:102F7000810A00103C0A0010240A0010440A0010C4
:102F8000A0860100300A00100080004010B5040047
:102F90002000FFF773FFFFF790FF0028FBD0FFF73B
:102FA00080FF10BD00B583B000208DF80200022024
:102FB0008DF8000008208DF8010000A800F032FC18
:102FC00001224FF48071022000F05AFC4FF480710E
:102FD000022000F075FC04208DF8010000A800F02C
:102FE00021FC00221021022000F04AFC03208DF871
:102FF000020000208DF8010000208DF80000022062
:103000008DF8030001208DF8040000A800F00AFCF0
:1030100001208DF8010000A800F004FC07BD0000AD
:1030200000B589B003208DF8020000208DF804005F
:1030300000208DF803000F208DF8010000208DF88E
:10304000000000A800F0EEFB11208DF8010000A8A0
:1030500000F0E8FB12208DF8010000A800F0E2FB70
:1030600000208DF8020010208DF8010000A800F06B
:10307000D9FB01225FF48031002000F001FC5FF4F5
:103080008031002000F011FC02208DF800000D209E
:103090008DF8010000A800F0C5FB00224FF400519C
:1030A000022000F0EDFB4FF400600290002003903E
:1030B0001020049020200590002006901D480790C5
:1030C00002A91D4801F00EF809B000BD38B5040092
:1030D000002C0BD032200500002D01D06D1EFBE727
:1030E0005FF48031002000F0E0FB0AE05FF4803103
:1030F000002000F0E5FB32200500002D01D06D1E00
:10310000FBE731BD81B00D49C0B208600C490968C8
:1031100000910906FAD5322100910099002903D0C7
:103120000099491E0091F8E7044909680800C0B2F7
:1031300001B0704700093D00000002400800024055
:103140000400024010B440B241095D4A012310F06E
:103150001F04A34042F8213010BC7047594A012394
:103160001370594A126812F0F8021000C0B2F82821
:1031700003D1564A082313608FE0C0B20200602AD0
:103180001AD0702A18D0802A20D0882A3CD0902AC1
:103190001CD0982A38D0A02A3DD0A82A42D0B82ADC
:1031A0004ED0C02A6FD0F82A74D1494A0423136044
:1031B000464A0823136070E0464A00231360444ADD
:1031C00004231360414A0823136066E0424A1268F0
:1031D0001100404A1268414BD1543E4A1268521CB9
:1031E0003C4B1A603B4A12683C4B5B78DB1C9A42B2
:1031F00003D1364A0C2313604FE0354A0423136091
:10320000324A0823136048E0304A08231360324AE8
:103210001268110041E02E4A042313602B4A082350
:1032200013603AE02B4A012313602B4A2C4B1B7886
:103230001360274A04231360244A082313602CE0F8
:10324000244A1268264B5B78DB1C9A4211D2214A31
:103250001268234BD25C204B1A601E4A1268521C23
:103260001C4B1A601A4A04231360184A082313607F
:1032700013E0184A12681A4BD25C174B1A60134AB3
:103280000C23136009E0124A042313600F4A282319
:10329000136002E00D4A28231360704780B50B4885
:1032A0006C2101600F48022101600F480721016075
:1032B0000B20FFF747FF06484421016001BD0000D5
:1032C00000E100E0840A001004C0054018C0054079
:1032D00000C005407C0A001008C00540040800102A
:1032E000040900100CC0054030C0054080B5DFF86F
:1032F0003400006800280BD0DFF82C0001210160A9
:103300004FF42F70FFF742FEDFF82000012101602B
:10331000DFF810000068002801D0002000E0012044
:1033200002BD0000900A3823200B3823A00B38235D
:1033300070B582B0DFF8F8030078401E0400DFF8B3
:10334000F4030500DFF8F0030600DFF8F0030121C5
:103350004170DFF8E80300218170DFF8E403407A70
:1033600010F0FC00DFF8D8134872DFF8C40340788F
:1033700010F07F00C0B2512834D0532865D05728B0
:1033800000F08180582800F094805A2800F0928044
:10339000642800F0B880682800F0F680702800F0FB
:1033A000CA80712800F00C81762840F0338100F04B
:1033B00056FF0A2000F00BFF002808D1DFF8800339
:1033C000407A50F00200DFF87813487228E1DFF805
:1033D0007003407ADFF86C1309780843DFF8601354
:1033E00048721DE1052C08D2DFF85403407A50F0F2
:1033F0000100DFF84C13487226E0DFF83813200094
:10340000C0B200F04DFF002808D1DFF83403407A45
:1034100050F00200DFF82813487215E0DFF81C03B3
:103420004078C01CDFF814134870DFF81C030078E4
:103430003070761CDFF8100340783070761CDFF8AF
:10344000080380783070761CEAE0042C08D2DFF89C
:10345000F002407A50F00100DFF8E412487211E007
:10346000B64840788038B54948703200290080203D
:1034700001F03CF8002805D1B148407A50F0020034
:10348000AF494872CCE0642000F0CEFE002806D19F
:10349000AB48407A50F00200A949487208E0A748BA
:1034A0004078401CA5494870A448A6490978C170D5
:1034B000B6E0B5E0052C06D2A148407A50F00100F4
:1034C0009F4948721EE09B492000C0B200F04DFFAA
:1034D000002806D19A48407A50F002009849487274
:1034E00010E096484078C01C94494870964800788F
:1034F0003070761C944840783070761C9248807802
:103500003070761C8CE08D484078401D8B494870A7
:103510008B48407A10F0FD008949487231006420E0
:1035200000F029FE002805D18548407A50F00200BD
:103530008349487274E0052C06D28148407A50F0E5
:1035400001007F4948721EE07A492000C0B200F0B5
:103550006DFF002806D17A48407A50F00200784981
:10356000487210E075484078C01C7449487076482D
:1035700000783070761C744840783070761C724841
:1035800080783070761C4BE0052C06D26C48407A6F
:1035900050F001006A49487211E03100280001F042
:1035A00067F8002806D16648407A50F00200644966
:1035B000487204E061484078C01C604948702FE0C0
:1035C000032C06D25E48407A50F001005C494872F4
:1035D0001FE05D48297801706D1C5B4829784170B7
:1035E0006D1C5948297881706D1C310000A800F0CD
:1035F000F8FF002806D15248407A50F002005049A6
:10360000487206E04D4840789DF8001008184B4974
:10361000487005E04A48407A50F001004849487235
:103620004748407AC0070CD54448012141704348BF
:10363000012181704248407A10F0FE0040494872F2
:103640000AE03F48407A800706D53C480121417096
:103650003A4804218170FFE773BD1CB501F058F8AA
:103660003749202001F058F8002859D03448006824
:10367000364988422ED10A2000F0D6FD002806D116
:103680002F48407A50F002002D4948724EE000A9C0
:103690000A2000F070FD002815D005200400002C41
:1036A00044D000A8201810F8010C25496118C978E9
:1036B000884206D02248407A50F0020020494872E1
:1036C00034E0641EEBE71E48407A50F002001C49CB
:1036D00048722BE020220021194801F02DF81848EB
:1036E0001A4901601A490A2000F045FD002810D04F
:1036F0000A2000F099FD002806D11148407A50F0C8
:1037000002000F49487211E00D480E4909784172D4
:103710000CE00B48407A50F002000949487205E07D
:103720000748407A50F002000549487213BD000076
:103730000408001006080010070900100409001012
:10374000040A0010830A0010780A0010CC3355AA2E
:10375000080A0010F0B4C9B20C00C0B245002E4BEC
:10376000102C01D3103C6D1C53F825600327A44690
:103770005FFA8CFC5FEA4C0C17FA0CF7BE4343F877
:10378000256053F82560D2B22700FFB27F0012FAFD
:1037900007F73E4343F82560F0BC7047F0B4C9B268
:1037A0000C00C0B245001D4B102C01D3103C6D1C09
:1037B00053F825600327A4465FFA8CFC5FEA4C0CA3
:1037C00017FA0CF7BE4343F8256053F82560D2B2D0
:1037D0002700FFB27F0012FA07F73E4343F8256047
:1037E000F0BC704730B40E4BD2B2012A09D1C0B23E
:1037F00053F8204001258D402C43C0B243F82040AF
:1038000008E0C0B253F8204001258D40AC43C0B25F
:1038100043F8204030BC704700C0024040C0024026
:1038200068C0024010B50400A27861782078FFF7E4
:1038300091FFE27861782078FFF7B0FF2279617814
:103840002078FFF7CFFF10BD01000020C9B200298A
:1038500006D002290AD006D304290DD009D30EE0E0
:103860001D4A10000BE01D4A100008E01C4A100021
:1038700005E01C4A100002E01B4A1000FFE77047F9
:1038800070B504000D0016002000C0B2FFF7DCFF89
:10389000002809D0F6B2002E03D001682943016048
:1038A00002E00168A943016070BD38B504000D0055
:1038B0002000C0B2FFF7C8FF002800D0856131BDED
:1038C00038B504000D002000C0B2FFF7BDFF00288E
:1038D00000D0C56131BD000000C0092020C0092012
:1038E00040C0092060C0092080C0092070B50400D4
:1038F000354800680500344800684FF47A71B0FB21
:10390000F1F05FF08071B1FBF0F000F021FF0600F4
:10391000200000F01DFF0100300000F027FF00D262
:10392000FEE72A48006850F00400284908604FF478
:103930007A70B5FBF0F06043401E2549086070BD09
:1039400010B50400E4B2002C08D0E4B2012C05D07C
:1039500079210B4878442830FFF73AF8E4B2012C7B
:1039600006D11A48006850F001001849086005E0C7
:1039700016480068400840001449086010BD00BFA8
:10398000AC10000010B50400E4B2002C08D0E4B282
:10399000012C05D08C210B4878442830FFF718F80B
:1039A000E4B2012C06D10948006850F00200074932
:1039B000086005E00548006830F00200034908602F
:1039C00010BD00BF681000000000001010E000E013
:1039D00014E000E077480068C0F30160032850D18C
:1039E0007548006810F00300002804D0022830D089
:1039F00018D303286ED16F4800684004400C401C67
:103A00006E4948436B490968C1F30741491CB0FB43
:103A1000F1F06B490968C9B2491CB0FBF1F0694982
:103A2000086057E0634800684004400C401C664949
:103A3000484360490968C1F30741491CB0FBF1F0F4
:103A40005F490968C9B2491CB0FBF1F05D490860E3
:103A500040E0584800684004400C401C5FF480314E
:103A6000484354490968C1F30741491CB0FBF1F0D0
:103A700053490968C9B2491CB0FBF1F051490860CB
:103A800028E04D48006810F00300002804D0022808
:103A900016D00BD303281DD14C4849490968C9B237
:103AA000491CB0FBF1F04749086013E0484844491D
:103AB0000968C9B2491CB0FBF1F04249086009E04D
:103AC0004FF400403E490968C9B2491CB0FBF1F00F
:103AD0003C49086070473F48202101603D4800682C
:103AE000800603D53B4800684006FBD534480321D7
:103AF00001603948002101603848002101602E48EA
:103B0000012101603648374901603748AA21016028
:103B10003548552101603548012101603248AA210C
:103B20000160314855210160224800684001FBD501
:103B30002E48032101602C48AA2101602A48552102
:103B400001601C48006810F0407FFAD0284823210B
:103B500001602848AA2101602648552101602648B5
:103B6000012101602348AA210160224855210160FA
:103B7000224800684005FBD51F48032101601D480D
:103B8000AA2101601B48552101601C4800684FF4C0
:103B900040710842F9D01A481A4901601A480021B8
:103BA00001601A4843F23A0101601948002101609E
:103BB0007047000088C00F400CC10F4000127A000F
:103BC00004C10F400000001000366E0100093D00E6
:103BD000001BB700A0C10F40A8C10F40ACC10F40EF
:103BE00084C00F40630005008CC00F4080C00F40B0
:103BF000A4C00F40ACC00F40A0C00F40A8C00F40F1
:103C0000C4C00F40DE872804C8C10F4000C00F4069
:103C100008ED00E038B50400002C05D0022C0DD0D2
:103C200007D3032C0FD012E00220FEF70BFE050095
:103C30000DE00420FEF706FE050008E02C20FEF74C
:103C400001FE050003E02E20FEF7FCFD0500280024
:103C500032BD2DE9F04106000F003000FFF7DAFF1A
:103C6000002104000D0022002B005FF00008A7FBDC
:103C7000020107FB031108FB0211DFF808240023EF
:103C800000F090FD04000D002000BDE8F08101006F
:103C90005FF0FF30B1F1402F02D10022100013E09D
:103CA000DFF8E423914202D1012210000CE0DFF89A
:103CB000DC23914202D10222100005E0DFF8D0237C
:103CC000914201D1032210007047000070B504003A
:103CD0000D00B4F1402F11D0DFF8AC0384420DD0B9
:103CE000DFF8A803844209D0DFF8A403844205D09A
:103CF0009F21144878444C30FEF76AFEEDB2002D47
:103D000014D0EDB2012D11D0EDB2022D0ED0EDB2D6
:103D1000032D0BD0EDB2042D08D0EDB2052D05D04A
:103D2000A021084878441C30FEF752FE206801218B
:103D3000A94008400600F6B2002E01D0012000E0A4
:103D4000002070BD1C0D000038B504000D00B4F15A
:103D5000402F11D0DFF8300384420DD0DFF82C0360
:103D6000844209D0DFF82803844205D0D6211148C7
:103D700078444030FEF72CFEEDB2002D14D0EDB2A9
:103D8000012D11D0EDB2022D0ED0EDB2032D0BD0CE
:103D9000EDB2042D08D0EDB2052D05D0D721054890
:103DA00078441030FEF714FE20680121A940084332
:103DB000206031BDAC0C00002DE9F04104000D0085
:103DC0001600B4F1402F13D0DFF8BC0284420FD0AC
:103DD000DFF8B80284420BD0DFF8B402844207D087
:103DE0004FF492714348784400F58570FEF7F0FD7A
:103DF000EDB2002D0FD0EDB2012D0CD0EDB2012DA2
:103E000009D0EDB2012D06D040F225113948784491
:103E1000E230FEF7DDFDB4F1402F08D10121022090
:103E2000FEF739FD00210220FEF7D2FC27E0DFF883
:103E30005802844208D101210420FEF72CFD002104
:103E40000420FEF7C5FC1AE0DFF84002844209D1E5
:103E500001215FF48000FEF71EFD00212C20FEF7FB
:103E6000B7FC0CE0DFF82802844208D101215FF49E
:103E70000000FEF710FD00212E20FEF7A9FCA06A2D
:103E800080088000A062A06AA0620020A0600020DC
:103E900020610020E060606850F0020060606068AF
:103EA00030F002006060EDB2002D10D1370038789C
:103EB000002803D17868401EE06015E02000FFF77D
:103EC000E6FE7968FFF7C5FE401EE0600CE0B046F4
:103ED000A06A30F00C00A06298F80100012803D11C
:103EE000A06A50F00400A0625FF0FF302060BDE8DF
:103EF000F08100BF6C0B000038B504000D00B4F178
:103F0000402F0FD0604884420CD06048844209D0D2
:103F10005F48844206D04FF4C77109487844203086
:103F2000FEF756FDEDB2012D04D1606850F001009E
:103F3000606003E0606840084000606031BD00BF21
:103F4000200B000010B50400B4F1402F0FD04E48F4
:103F500084420CD04D48844209D04D48844206D05A
:103F60004FF4D371064878441630FEF731FD60688F
:103F700050F002006060606830F00200606010BDC8
:103F8000E00A000038B504000D00B4F1402F0FD056
:103F90003D4884420CD03D48844209D03C4884428C
:103FA00006D040F2C51136487844D430FEF710FDF3
:103FB000287900280FD0287901280CD028790228E8
:103FC00009D02879032806D04FF4E3712C487844AF
:103FD000AE30FEF7FDFC2878002805D0022809D075
:103FE00005D3032809D00BE0A868A06109E0A86800
:103FF000E06106E0A868206203E0A868606200E073
:10400000FEE7606907212A7803235A4391408843D9
:1040100060616878002807D0606901212A7803234D
:104020005A43914008436061E878002808D06069ED
:1040300001212A7803235A43521C914008436061AE
:10404000A878002808D0606901212A7803235A4300
:10405000921C914008436061E06B03212A78520072
:10406000121D91408843E063E06B297911F0030150
:104070002A785200121D91400843E06331BD00BF11
:10408000E009000040420F000080004000000940AD
:10409000004009402DE9F04104000D00DFF8AC00BC
:1040A000844205D03A210E4878443430FEF790FC23
:1040B000DFF89800844206D11020FEF7C3FB06000B
:1040C0000820070000E009E007FB05F08046B04546
:1040D00002D2BF1CFE2FF7D3F8B2E060BDE8F0813A
:1040E000B409000070B504000D00DFF860008442E0
:1040F00005D07C21144878444E30FEF769FCDFF887
:104100004C0084421CD101214FF48070FEF7C3FBA8
:104110006868A96808432969084329680843E96869
:10412000084340F6FC71084050F004000600266089
:1041300069692000FFF7AEFFE069C00701D402E023
:1041400001E00120E06170BD4C0900000000024068
:1041500080B5DFF8B005006800280AD0FEF7F7FE4A
:104160000028F6D0FEF7E9FE0120FEF7AFFF0020A1
:1041700000E0012002BD70B504000D0005262000FE
:10418000FEF7CBFEFFF7E4FF002801D100201DE081
:104190000020FEF79BFF0F20FEF7B4FFDFF8681545
:1041A0000870002E0CD0FFF7D3FF002801D10020AB
:1041B0000CE00020FEF7A6FF28706D1C761EF0E7CD
:1041C0000120FEF783FFFEF7B8FE012070BD10B599
:1041D00004002000FEF7A1FEFFF7BAFF002801D17E
:1041E000002020E00020FEF771FF0220FEF78AFF8A
:1041F000DFF8141508700120FEF768FFFFF7A8FF2D
:10420000002801D100200EE00020FEF75FFF05200E
:10421000FEF778FFDFF8F01408700120FEF756FF74
:10422000FEF78BFE012010BD10B504002000FEF744
:1042300074FEFFF78DFF002801D100200EE0002062
:10424000FEF744FF0520FEF75DFFDFF8BC140870A1
:104250000120FEF73BFFFEF770FE012010BD80B588
:104260004FF47A60FEF759FEFFF772FF002801D184
:10427000002014E00020FEF729FF0620FEF742FF91
:10428000DFF8841408700120FEF720FFFFF760FFBD
:10429000002801D1002002E0FEF74FFE012002BD00
:1042A00070B506000D004FF47A70FEF736FEFFF78A
:1042B0004FFF002801D1002056E00020FEF706FF46
:1042C0000420FEF71FFFDFF840140870FFF740FFDF
:1042D000002801D1002047E03000C0B2FEF712FFF5
:1042E000FFF736FF002801D100203DE0F6B2002E96
:1042F0000CD0FFF72DFF002801D1002034E02878F2
:10430000FEF700FF04006D1C761EEFE7FFF720FFAD
:10431000002801D1002027E0FF20FEF7F3FEDFF8A0
:10432000EC130870FFF714FF002801D100201BE0F8
:10433000FF20FEF7E7FEDFF8D4134870FFF708FF11
:10434000002801D100200FE0FF20FEF7DBFEDFF8A0
:10435000BC138870FEF7F1FD0120FEF7B7FEDFF811
:10436000AC030021C170012070BD70B506000D00C6
:104370004FF47A70FEF7D1FDFFF7EAFE002801D175
:10438000002052E00020FEF7A1FE0120FEF7BAFE59
:10439000DFF874130870FFF7DBFE002801D100205E
:1043A00043E03000C0B2FEF7ADFEFFF7D1FE0028BB
:1043B00001D1002039E0F6B2002E0CD0FFF7C8FE84
:1043C000002801D1002030E02878FEF79BFE040091
:1043D0006D1C761EEFE7FFF7BBFE002801D1002021
:1043E00023E0FF20FEF78EFEC8490870FFF7B0FEFD
:1043F000002801D1002018E0FF20FEF783FEC3490A
:104400004870FFF7A5FE002801D100200DE0FF2035
:10441000FEF778FEBD498870FEF78FFD0120FEF79C
:1044200055FEBA480021C170012070BD70B506006C
:104430000D004FF47A70FEF770FDFFF789FE00283B
:1044400001D1002051E00020FEF740FE0C20FEF7D5
:1044500059FEAD490870FFF77BFE002801D100200E
:1044600043E03000C0B2FEF74DFEFFF771FE0028BA
:1044700001D1002039E0F6B2002E0CD0FFF768FE23
:10448000002801D1002030E02878FEF73BFE040030
:104490006D1C761EEFE7FFF75BFE002801D10020C0
:1044A00023E0FF20FEF72EFE98490870FFF750FE2C
:1044B000002801D1002018E0FF20FEF723FE9349D9
:1044C0004870FFF745FE002801D100200DE0FF20D5
:1044D000FEF718FE8D498870FEF72FFD0120FEF7CC
:1044E000F5FD8A480021C170012070BD70B504003F
:1044F0000D0016004FF47A70FEF70FFDFFF728FE4F
:10450000002801D1002039E02800451C007800284F
:1045100005D000F04DF8002807D100202EE000F073
:104520002EF8002801D1002028E00020FEF7CEFD63
:104530000320FEF7E7FD744908702878FEF7E2FDD6
:104540006D1C2878FEF7DEFD6D1C2878FEF7DAFD7D
:104550006D1C002C0CD0FFF7FBFD002801D10020C2
:104560000CE00020FEF7CEFD3070761C641EF0E7F4
:10457000FEF7E3FC0120FEF7A9FD012070BD80B528
:104580000A20FEF7CAFCFFF7E3FD002801D1002056
:104590000DE00020FEF79AFD0D20FEF7B3FD5A490D
:1045A00008700120FEF792FDFEF7C7FC012002BD56
:1045B00080B50A20FEF7B1FCFFF7CAFD002801D143
:1045C00000200DE00020FEF781FD0B20FEF79AFD94
:1045D0004D4908700120FEF779FDFEF7AEFC012081
:1045E00002BD70B504000D004FF47A70FEF795FC23
:1045F000FFF7AEFD002801D1002038E00020FEF7D3
:1046000065FD0920FEF77EFD3F4908703F480078B0
:10461000FEF778FD3D484078FEF774FD3B48807812
:10462000FEF770FD374800680028FBD0FFF790FDCB
:10463000002801D100201AE00020FEF763FD0600EB
:104640002670F6B2002E0CD0FFF782FD002801D1B3
:1046500000200CE00020FEF755FD28706D1C761E32
:10466000EFE7FEF76AFC0120FEF730FD012070BD88
:1046700038B504000D004FF47A70FEF74EFCFFF7DA
:1046800067FD002801D100203AE00020FEF71EFD62
:104690000A20FEF737FD1C4908702078FEF732FD2E
:1046A000641C2078FEF72EFD641C2078FEF72AFD9E
:1046B000641C2078FEF726FD641C2078FEF722FD9E
:1046C000641C104800680028FBD0FFF741FD00285B
:1046D00001D1002014E00020FEF714FD28706D1CAD
:1046E0000020FEF70FFD28706D1C0020FEF70AFD6C
:1046F00028706D1CFEF721FC0120FEF7E7FC01206D
:1047000032BD0000B40A3823830A0010780A001072
:1047100080B5FFF75FF901BD38B504000D00B4F5B1
:10472000805F01D9002006E022004FF4805128006C
:1047300000F0C5F8012032BD70B504000D00160070
:104740002A003100200000F0C5F8200070BD0000F4
:1047500000280AD0B0FA80F18840D1F19D01C90546
:10476000020672F1004241EB102070474FF0807C4E
:104770001CEB400F94BF1CEB410F05E040EA010C1D
:104780005FEA4C0C01D28842704718BF81427047E3
:1047900013F0004C03D55B42524263F100039CEAE4
:1047A000210C15D11B4229D109424CD12AB1844692
:1047B000B0FBF2F002FB10C2704700F0BFB8FCD3B0
:1047C0000022002370470B000200002100207047E8
:1047D00010B5644603D34942404261F10001FFF73E
:1047E000E1FF640004D34942404261F100012442E8
:1047F00003D55B42524263F1000310BD904271EB5E
:10480000030CE0D370B5B1FA81F4B3FA83F52C1B35
:10481000A340C4F1200532FA05F63343A2405FF00D
:104820000046E64002E05B085FEA3202841A71EB60
:10483000030524BF204629467641F4D302000B002D
:104840003000002170BD012AB9D970B5140C20D0F8
:10485000B1FA81F4B2FA82F5C4F120046419B4F11A
:104860002006D6D3B2405FF00044F440002502E0B9
:1048700052085FEA3303C61A71EB020E24BF3046BA
:10488000714664416D41F3D302000B002000290002
:1048900070BD0C46B1FBF2F102FB11452D0445EA57
:1048A0001045B5FBF2F402FB145580B240EA054511
:1048B000B5FBF2F002FB105240EA044070BD70B547
:1048C00004000D00160032002900200000F038F826
:1048D000200070BD62F30F2262F31F42401810F0F7
:1048E000030308D0C91A1FD3DB0748BF00F8012D06
:1048F00028BF20F8022D130030B414461546103995
:1049000028BF20E93C00FAD8490728BF20E90C005D
:1049100048BF40F8042D890028BF20F8022D48BF69
:1049200000F8012D30BC7047C91818BF00F8012DE0
:10493000CB0728BF00F8012D70470000704700002A
:104940004AB38B0707D0521E11F8013B00F8013B18
:1049500021D08B07F7D183071ED1103A07D330B48B
:10496000B1E83810103AA0E83810F9D230BC53073B
:1049700024BFB1E80810A0E8081044BF51F8043B78
:1049800040F8043BD20724BF31F8022B20F8022B59
:1049900044BF0B7803707047083A07D3B1E808109A
:1049A000083A40F8043B40F804CBF7D25307E4E759
:1049B000F0B500F10801026801EB82024368580873
:1049C000400002EB800000260027344601E06545E8
:1049D0000BD1824200D1F0BD52F8045B5FEAC37C88
:1049E00048BF4D4452F804CBAC44BE4205D10E68DA
:1049F0007618091D51F8047BBF19BE42E7D0654502
:104A0000E5D00CB916F9014B4FF0000E01E005F8A6
:104A100001EB002C18BF654518BFBE42EDD0002C3D
:104A200046BF16F801EB641C641EF0E7433A5C5085
:104A3000726F6A5C454B4C5A5F414C4B4F5C447201
:104A400069766572735C736F757263655C6C7063B5
:104A5000313778785F7379737469636B2E63000004
:104A6000433A5C50726F6A5C454B4C5A5F414C4B09
:104A70004F5C447269766572735C736F75726365BF
:104A80005C6C7063313778785F74696D65722E6322
:104A900000000000433A5C50726F6A5C454B4C5A10
:104AA0005F414C4B4F5C447269766572735C736F07
:104AB000757263655C6C7063313778785F737069A9
:104AC0002E630000433A5C50726F6A5C454B4C5A4F
:104AD0005F414C4B4F5C447269766572735C736FD7
:104AE000757263655C6C7063313778785F7561727D
:104AF000742E630010B5084979441C31074C7C447E
:104B00001A34A14206D0081D0A6851188847014688
:104B1000A142F8D110BD00BF080000003000000025
:104B2000B3DEFFFF840A0000040000100000000054
:104B300081FEFFFF020000000200000090B5FFFFB1
:104B400005000000000000100400000000F009F85B
:104B5000002801D0FFF7CEFF0020FDF735FF00F061
:104B600002F80120704780B500F002F800BF000095
:104B70000746384600F002F8FBE7000080B5C04663
:104B8000C046024A11001820ABBEFBE72600020017
:104B90000148804701480047D73A0000A14B000078
:104BA000C046C046C046C046FFF7D0FFFFF7FEBF75
:104BB000FFF7FEBFFFF7FEBFFFF7FEBFFFF7FEBF29
:104BC000FFF7FEBFFFF7FEBFFFF7FEBFFEF7F4B82B
:104BD000FFF7FEBFFFF7FEBFFFF7FEBFFFF7FEBF09
:104BE000FFF7FEBFFDF760BFFDF730BFFFF7FEBF69
:104BF000FFF7FEBFFFF7FEBFFFF7FEBFFEF7AEBA3F
:104C0000FFF7FEBFFFF7FEBFFFF7FEBFFFF7FEBFD8
:104C1000FFF7FEBFFFF7FEBFFFF7FEBFFFF7FEBFC8
:104C2000FFF7FEBFFFF7FEBFFFF7FEBFFFF7FEBFB8
:104C3000FFF7FEBFFFF7FEBFFFF7FEBFFFF7FEBFA8
:104C4000FFF7FEBFFFF7FEBFFFF7FEBFFFF7FEBF98
:0C4C5000FFF7FEBFFFF7FEBFFFF7FEBF3F
:0400000500004BA10B
:00000001FF
