:020000040000FA
:0600000082308A00292A6B
:080008008A010B180828090009
:1000100020000E181E2A0D1B10288C1E0B281E2ACD
:100020002400951611087008910020009111652494
:100030008C1A1E2A2000FD000F307D050B0055286C
:100040007A282F2855286D2865285C28CD29DB299A
:10005000A528FF28592848295628F629DD290E14F5
:1000600020007010F0107011F0117012F012701763
:10007000F0172000F3132000F701F801F9010E300A
:100080008A003F268A110A120E308A00E8268A1159
:100090000A122800AA01AB01AC01AD01AE010E307D
:1000A0008A008E268A110A121E2A1E2A2000F313A5
:1000B0001E2A2000F3171E2A0E1473248C24F31713
:1000C00095247324F3138C241E2A20007008240026
:1000D000910065240E1C65281E2A731A192A6524AE
:1000E0000E18192AF90065240E18192AF8000E14A2
:1000F000192A1E2A65240E18192A65240E18192A91
:100100002000F90065240E18192AF80065240E183D
:10011000192AF7000E140330A024AA242400990001
:100120002000141C912814102400190824009100A8
:10013000200091110E1065240E18192A0E14DD24CA
:1001400003188B288E288C241E2AD62465241A0096
:100150002000FC0A031DAE287314B12865240E1C70
:10016000A7280E1429000330BA0020308500503033
:100170008400043087003730860012001E002900FA
:10018000BA0BBD2829000330BA002030850050305A
:1001900084001200003A031DD7282900BA0BC52895
:1001A0000E308A00B0268A110A125925FC280E301A
:1001B0008A009F268A110A120A308A0075228A1143
:1001C0000A122030850050308400280012003902C5
:1001D0000319ED280318FB28FD2812003802031923
:1001E000F4280318FB28FD28120037020319FB2806
:1001F0000318FB28FD2866251E2AD0011E2AD624B6
:1002000065241A002000FC0A031D082973140B2919
:1002100065240E1C01290E140E308A00B0268A11A6
:100220000A122030850050308400043087003730B7
:10023000860029000330BA0012000106031D1E2AA1
:10024000860A2900BA0B1C2929000230BA00203086
:10025000850050308400043087003430860012005E
:100260001E002900BA0B2F295925053084022800C9
:1002700012003406031D1E2A12003506031D1E2A15
:100280002800B70A0E308A00E8268A110A121E2AB0
:10029000D624F118D62465241A002000FC0A031D78
:1002A000532973145B2920007C08500603195B292D
:1002B00065240E1C4C290E1429000130BA000030B0
:1002C00085007C30840004308700223086001200D4
:1002D0001E002900BA0B67292800A2032000203045
:1002E000CF005130D00008308A0000208A110A1255
:1002F0000A308A0075228A110A120A308A00912275
:100300008A110A1220000730FC0700002030870005
:100310005030860029000130BA00003085007C3062
:100320008400043087004830860012001E00290037
:10033000BA0B952908250318192A0E308A0066265B
:100340008A110A1280240230A024AA24FC2420004E
:10035000FC0BAB29AE29031CA529A2290E308A006B
:100360003F268A110A120E308A008E268A110A123E
:1003700029000330BA000430850037308400203073
:1003800087005030860012001E002900BA0BC329D6
:10039000731082258C24C3241E2AD62465240E18AB
:1003A000192A1A00FC0A031DD72973141E2A652472
:1003B0000E181E2AD12982251E2A0E140F308A00FB
:1003C0003B278A110A1229000530BA000430850043
:1003D000A2308400203087005030860012001E00BA
:1003E0002900BA0BEE29FC0182251E2A65240E186D
:1003F000192A2800C30065240E18192A2800C400F1
:1004000019250E1427252000031C70107018F014F5
:10041000FF302800A20020002030CF005030D00054
:1004200008308A0000208A110A122000F11E40259F
:100430001E2A20007018F0147014202A200070105A
:1004400020000E14240095122700FF301306930598
:10045000090000002100F030990023008C018D017B
:100460008E0127003F308C0024008C0021008C007E
:10047000270070308D0024008D0021008D002700A2
:1004800060308E0024008E0021008E0020008E152A
:100490000E150E14F101F001220084309D009E0122
:1004A000240094019C011430950000309D009C179D
:1004B0001C179D16270091019201930192168B152E
:1004C0008B17742A0D308A00E8258A110A12200041
:1004D000F01B852A0D308A00F9258A110A1228009E
:1004E0009030C6000130C5000F308A001F278A11E6
:1004F0000A1220000000000000008C1E7D2A0E1051
:100500008B170E1C812A8B13792A2900DD30BB0042
:100510003230CA0020000E102900BB0B922ACA0BF1
:10052000922A982A8C1E922A0E100E1C8C2A8A2A35
:1005300023009D0101309C00A0309B0008309F00EB
:1005400004309E009D179E161D162000911EA62A9F
:10055000230019089E1CAA2A9A00A52A20007313BA
:1005600020308500003084002900BB0BBA2ACA0B5A
:10057000BA2A852A03014C242000731BAE2A023AB2
:10058000031DAE2A4C242000731BAE2A1A00013E24
:100590002000FC004C242000731BAE2A1A0020000F
:1005A000FC0BCA2A20308500003084000008023E7F
:1005B0002000FC0003010006840A2000FC0BDB2A5B
:1005C000003A031D482C20308500013084000008CB
:1005D00007390B00482CF22A052B282B602BD32B34
:1005E000202C222C11305F2428002A08003A031DF9
:1005F000982A2B000230A0000230A1001130A20086
:100600000F30A30013305F24242C11305F24280006
:100610002A08013A031D982A20002030D100023018
:10062000D20008302000EA005F302000E9001030DE
:100630008A0038208A110A122B000230A0000230F2
:10064000A1001230A200FF30A30013305F24242C3D
:1006500011305F2428002A08023A031D982A2B0033
:100660000230A0000A30A1001330A200FF30A30026
:1006700020000030D1005730D20008302000EA00BE
:100680005F302000E90010308A0022208A110A120F
:1006900008308A001D208A110A1229000830BA0089
:1006A000003085005730840005308700A430860074
:1006B00012001E002900BA0B582B13305F24242C83
:1006C00011305F2428002A08033A031D982A2000CD
:1006D0002030D1000430D20005302000EA0007307D
:1006E0002000E90010308A0038208A110A122B00FD
:1006F0000230A0000630A1001430A200FF30A30099
:1007000020002030CF000A30D0002800A030A20006
:1007100008308A0000208A110A1229000430BA0029
:10072000003085005730840005308700A4308600F3
:1007300012001E002900BA0B982B20002030D10097
:100740000A30D200A0302000EA0050302000E9003A
:1007500010308A0038208A110A12200070152800F3
:100760000330CC002900FF30BB00CA00CB002900B9
:10077000BB0BB82BCA0BB82BCB0BB82BCC0BB22BAB
:1007800029000430BA00003085005730840005305D
:100790008700A430860012001E002900BA0BCB2B64
:1007A00013305F24242C11305F2428002A08043AD7
:1007B000031D982A20002030D1000230D2000530DD
:1007C0002000EA0010302000E90010308A003820B4
:1007D0008A110A120B308A0035238A110A120A3054
:1007E0008A00B4228A110A122B000230A0000730BE
:1007F000A1001530A200FF30A30020002030D1005E
:100800000230D20005302000EA0010302000E9005C
:1008100010308A0022208A110A1229000530BA00FD
:10082000203085000230840005308700A430860027
:1008300012001E002900BA0B182C13305F24242C40
:1008400000000000000000002800AA0A2B00210878
:10085000013E2000FC0005308500A130840003012A
:100860000006840A2000FC0B302C80002B0021089D
:100870002000033EFC0005308500A03084001200FB
:100880005F242000FC0B3F2C2800A01CAE2AAE2ABF
:1008900000000000AE2A292A28006430CB00033073
:1008A000CC002800CB0B592CCC0B592C20007317F3
:1008B00008002000911E512C230019080800230075
:1008C0009E169E1C612C9A000800200091196B2C2A
:1008D0008C1A702C662C911124001108200008003D
:1008E00020000E1408008024C730A0248C24C324C8
:1008F00008008024D830A024AA248C24C324080013
:100900002000141095242400063099002000141CA7
:10091000872C14108C2408002000F31B922C8E15B9
:10092000000008000E15000008002000F31B9C2C9E
:100930008E1100000E1508000E1100008E15080023
:10094000200014109524240099002000141CA62CCB
:100950001410080020007908240099002000141CBD
:10096000AF2C141020007808240099002000141CDB
:10097000B72C141020007708240099002000141CC4
:10098000BF2C141008009524240005309900200085
:10099000141CC82C1410240099002000141CCE2C08
:1009A000141024001918CC2C8C2408002030850049
:1009B00050308400FC01731008000310F70F08008A
:1009C000F80FE92CF90F0800F31FE82CF313E92CBA
:1009D000F317031408000330A024AA24240099006C
:1009E0002000141CF12C1410240019081A00DD2416
:1009F0002900BA0BEE2C08001600240099002000F4
:100A0000141C002D1410DD2408000330A024AA2497
:100A1000240099002000141C0B2D14102400190828
:100A2000FF3A031D172DC80B082D031008000314EF
:100A30000800D62465241A002000FC0A031D222D7C
:100A40007314252D65240E1C1B2D0E140800031095
:100A50002800430828004506031D3E2D44082800B1
:100A60004606031D3E2D2800C60B0800031001306A
:100A7000C502031C080020007111080003140800BF
:100A80000030850057308400043087003430860001
:100A900029000430BA0012008106031D552D2900DB
:100AA000BA0B4B2D2000701108002000200070119F
:100AB000080029000130BA00203085005030840041
:100AC000EB2450082900BA00EB2408002000F3139F
:100AD0002000F901F801F701592503302900BA0077
:100AE000043087003A30860011008106031D6C2D0A
:100AF00086032900BA0B742D003019001900D003A9
:100B0000D0030800D6241200240091000E106524A2
:0C0B10000E180800120024009100862D31
:101000008B13F11C0A28F1161D308A0060258A1501
:101010000A12F1101D308A0081258A150A12280053
:1010200000302206031D0A28711D1828F1151C28FE
:1010300020007115F112F11408001D308A0060259E
:101040008A150A1223000030910080309200280097
:10105000A201711304302900BA0028000430850071
:101060003B3084002300151395178B1315140000D3
:1010700000008B17230013081A00230014081A001D
:1010800004308A002800A20AA20A2300910A230041
:10109000031D5028920A23001208203A03197117E1
:1010A00004308A00BA0B322820000430CF003B30D5
:1010B000D0001D308A0081258A150A12711F2A2846
:1010C00008002800AA0A2A1FBD2820000030D100ED
:1010D0002830D20001302000EA007F302000E900F3
:1010E00010308A0022208A150A1220000530D10013
:1010F0002030D20020302000EA0080302000E900BB
:1011000010308A0022208A150A1220000530D100F2
:101110002030D2001D308A004C258A150A12280082
:10112000AB0AAA0128002B1E9728AC0AAB012C1E83
:101130009B28AD0AAC012D1E9F28AE0AAD012800E8
:101140002E08280033060319A7287214BD2828008A
:101150002D08280032060319AF28F214BD282800F4
:101160002C08280031060319B628721528002B0810
:10117000280030060319BD28F21529000530BA00F1
:10118000043085002A308400043087002F30860028
:1011900012001E002900BA0BC8280800200072089F
:1011A0000F390B00722ADB284F29722AC329722AB1
:1011B000722A722A382A20000030D1002830D2004A
:1011C00001302000EA007F302000E90010308A0062
:1011D00022208A150A1220000530D100A030D2004A
:1011E00020302000EA00E0302000E90010308A00C2
:1011F00022208A150A1220000530D100A030D2002A
:101200001D308A004C258A150A1220000530D100B5
:10121000A030D20020302000EA00C0302000E900D9
:1012200010308A0038208A150A1220000030D100C0
:101230002830D20001302000EA007E302000E90092
:1012400010308A0022208A150A1220000530D100B1
:10125000A030D20020302000EA00E0302000E90079
:1012600010308A0022208A150A1220000530D10091
:10127000A030D2001D308A0032258A150A122000C3
:101280000530D100A030D20020302000EA00E0304C
:101290002000E90010308A0038208A150A12200048
:1012A0000030D1002830D20001302000EA007F3029
:1012B0002000E90010308A0022208A150A1220003E
:1012C0000530D100A030D20020302000EA00C0302C
:1012D0002000E90010308A0022208A150A1220001E
:1012E0000530D100A030D2001D308A004C258A156F
:1012F0000A1220000530D100A030D200203020009A
:10130000EA00A0302000E90010308A0038208A1559
:101310000A1220000030D1002830D2000130200015
:10132000EA007E302000E90010308A0022208A1571
:101330000A1220000530D100A030D2002030200059
:10134000EA00C0302000E90010308A0022208A150F
:101350000A1220000530D100A030D2001D308A00D2
:1013600032258A150A1220000530D100A030D200A3
:1013700020302000EA00C0302000E90010308A0050
:1013800038208A150A1220000030D1002830D200FF
:1013900001302000EA007F302000E90010308A0090
:1013A00022208A150A1220000530D100A030D20078
:1013B00020302000EA00A0302000E90010308A0030
:1013C00022208A150A1220000530D100A030D20058
:1013D0001D308A004C258A150A1220000530D100E4
:1013E000A030D20020302000EA0080302000E90048
:1013F00010308A0038208A150A1220000030D100EF
:101400002830D20001302000EA007E302000E900C0
:1014100010308A0022208A150A1220000530D100DF
:10142000A030D20020302000EA00A0302000E900E7
:1014300010308A0022208A150A1220000530D100BF
:10144000A030D2001D308A0032258A150A122000F1
:101450000530D100A030D20020302000EA00A030BA
:101460002000E90010308A0038208A150A12722AFA
:1014700020000030D1002830D20001302000EA00E6
:101480007E302000E90010308A0022208A150A12DE
:1014900020000530D100A030D20020302000EA002A
:1014A00080302000E90010308A0022208A150A12BC
:1014B00020000530D100A030D2001D308A00322536
:1014C0008A150A1220000530D100A030D200203049
:1014D0002000EA0080302000E90010308A00382027
:1014E0008A150A122000F201080028003F302A0560
:1014F000B70028002B183717AB18B7170C302B057F
:10150000B8002C0EB807B80CB80C2D183817AD1849
:10151000B8170C302D05B9002E0EB907B90CB90C4F
:10152000080029000430BA0020004F088500500848
:101530008400003087005730860016001A0029000A
:10154000BA0B9D2A29000330BA00043087003430DA
:10155000860016001A002900BA0BA92A20000508E7
:10156000CF000408D000080020000530D100A030D2
:10157000D20020302000EA0050302000E900103076
:101580008A0022208A150A1220000430D100A230DD
:10159000D20005302000EA0010302000E9001030B1
:1015A0008A0022208A150A1205302900BA00043068
:1015B0008500A230840005308700A030860012002C
:1015C0002900BB0001083B061E002900BA0BDF2AD8
:1015D00020000530D100A030D2001C308A00212428
:1015E0008A150A1220000030D1002830D2000130C4
:1015F0002000EA007D302000E90010308A0022201F
:101600008A150A1220000530D100A030D2005030D7
:101610002000EA0050302000E90010308A0022202B
:101620008A150A1220000530D100A030D20029000E
:101630005030BA001E308A0022268A150A1229006C
:101640000830BA02031D1A2B20000530D100A0304B
:10165000D20050302000EA0050302000E900103065
:101660008A0038208A150A12080020000530D100AF
:10167000A030D20050302000EA0050302000E900B5
:1016800010308A0022208A150A1220000530D1006D
:101690002030D20050302000EA00A0302000E900C5
:1016A00010308A0022208A150A1250302900BA0010
:1016B000053085002030840005308700A03086008A
:1016C00012002900BB0001083B061E002900BA0BCE
:1016D000602B20000530D100A030D2005030200017
:1016E000EA0050302000E90010308A0038208A15C6
:1016F0000A12080020000530D100A030D2002030AE
:101700002000EA0070302000E90010308A0022201A
:101710008A150A1220000430D100A730D2001230FE
:101720002000EA002A302000E90010308A00222040
:101730008A150A1212302900BA0004308500A73039
:10174000840005308700A030860012002900BB000D
:1017500001083B061E002900BA0BA52B200005300E
:10176000D100A030D2001C308A0021248A150A1230
:1017700020000530D100A030D20070302000E900F8
:1017800030302000EA0010308A0022208A150A1228
:1017900020000030D1002830D20001302000EA00C3
:1017A0007D302000E90010308A0022208A150A12BC
:1017B00020000530D100A030D20029000630BA0048
:1017C00000001E308A0022268A150A122900BA0B50
:1017D000E02B20000530D100A030D20030302000B6
:1017E000EA0080302000E90010308A0038208A1595
:1017F0000A12080020000530D100A030D2002030AD
:101800002000EA0080302000E90010308A00222009
:101810008A150A1220000030D1002830D200013091
:101820002000EA007F302000E90010308A002220EA
:101830008A150A1220000530D100A030D2001D30D8
:101840008A004C258A150A1220000530D100A030EC
:10185000D20020302000EA00E0302000E900103003
:101860008A0038208A150A1220000530D100A030E5
:10187000D2001D308A004C258A150A12200005303E
:10188000D100A030D20020302000EA00C03020007B
:10189000E90010308A0038208A150A122000003032
:1018A000D1002830D20001302000EA007E30200034
:1018B000E90010308A0022208A150A122000053023
:1018C000D100A030D20020302000EA00E03020001B
:1018D000E90010308A0022208A150A122000053003
:1018E000D100A030D2001D308A0032258A150A129C
:1018F00020000530D100A030D20020302000EA00C6
:10190000E0302000E90010308A0038208A150A12E1
:1019100020000030D1002830D20001302000EA0041
:101920007F302000E90010308A0022208A150A1238
:1019300020000530D100A030D20020302000EA0085
:10194000C0302000E90010308A0022208A150A12D7
:1019500020000530D100A030D2001D308A004C2577
:101960008A150A1220000530D100A030D2002030A4
:101970002000EA00A0302000E90010308A00382062
:101980008A150A1220000030D1002830D200013020
:101990002000EA007E302000E90010308A0022207A
:1019A0008A150A1220000530D100A030D200203064
:1019B0002000EA00C0302000E90010308A00222018
:1019C0008A150A1220000530D100A030D2001D3047
:1019D0008A0032258A150A1220000530D100A03075
:1019E000D20020302000EA00C0302000E900103092
:1019F0008A0038208A150A1220000030D1002830D1
:101A0000D20001302000EA007F302000E9001030D1
:101A10008A0022208A150A1220000530D100A03049
:101A2000D20020302000EA00A0302000E900103071
:101A30008A0022208A150A1220000530D100A03029
:101A4000D2001D308A004C258A150A12200005306C
:101A5000D100A030D20020302000EA0080302000E9
:101A6000E90010308A0038208A150A122000003060
:101A7000D1002830D20001302000EA007E30200062
:101A8000E90010308A0022208A150A122000053051
:101A9000D100A030D20020302000EA00A030200089
:101AA000E90010308A0022208A150A122000053031
:101AB000D100A030D2001D308A0032258A150A12CA
:101AC00020000530D100A030D20020302000EA00F4
:101AD000A0302000E90010308A0038208A150A1250
:101AE000080020000030D1002830D2000130200052
:101AF000EA007F302000E90010308A0022208A1599
:101B00000A1220000530D1002030D2002030200001
:101B1000EA0080302000E90010308A0022208A1577
:101B20000A1220000530D1002030D2001D308A007A
:101B30004C258A150A12080020000030D1002830F8
:101B4000D20001302000EA007C302000E900103093
:101B50008A0022208A150A1220000530D100A03008
:101B6000D20020302000EA0050302000E900103080
:101B70008A0022208A150A1220000530D100A030E8
:101B8000D2001D308A0032258A150A122000053045
:101B9000D100A030D20020302000EA0050302000D8
:101BA000E90010308A0038208A150A120800200047
:101BB0000030D1007030D20001302000EA00103037
:101BC0002000E90010308A0038208A150A12080027
:101BD00020000030D1007030D20001302000EA0037
:101BE00010302000E90010308A0022208A150A12E5
:101BF000080020000030D1005F30D2000830200003
:101C0000EA0010302000E90010308A0022208A15F6
:101C10000A1220000430D1004530D20002302000EA
:101C2000EA0018302000E90010308A0022208A15CE
:101C30000A1220000430D1003B30D20004302000D2
:101C4000EA0020302000E90010308A0022208A15A6
:101C50000A1220000030D1002E30D20020302000A7
:101C6000EA0000302000E90010308A0022208A15A6
:101C70000A122000F117F1147111F116080020006A
:101C80000030D1007730D20003302000EA0000306D
:101C90002000E90010308A0038208A150A1200302E
:101CA0002000F31B01302900BB0020000430D100CC
:101CB000BB30D20001302000EA0003302000E900F0
:101CC00010308A0038208A150A12080020000030DF
:101CD000D1007730D20003302000EA00003020002D
:101CE000E90010308A0022208A150A1220000430F0
:101CF000D100BB30D20001302000EA0003302000C8
:101D0000E90010308A0022208A150A1229003B08B7
:101D1000003A2000F313031DF317080020000430DD
:101D2000D1002A30D20005302000EA000B3020001C
:101D3000E90010308A0038208A150A1208002000B5
:101D40000430D1002A30D20005302000EA000B30E8
:101D50002000E90010308A0022208A150A120800AB
:101D600020000030D1007730D20003302000EA009C
:101D700004302000E90010308A0022208A150A125F
:101D800020000430D100BB30D20001302000EA0036
:101D900007302000E90010308A0022208A150A123C
:101DA00029003B08003A2000F313031DF31720001D
:101DB0000430D1003730D20003302000EA00073071
:101DC0002000E90010308A0022208A150A1208003B
:101DD00020000030D1007730D20003302000EA002C
:101DE00004302000E90010308A0038208A150A12D9
:101DF00000302000F31B01302900BB00200004301C
:101E0000D100BB30D20001302000EA0007302000B2
:101E1000E90010308A0038208A150A1220000430A8
:101E2000D1003730D20003302000EA000730200014
:101E3000E90010308A0038208A150A1208002900AB
:101E40001230A2003430A3005630A4007830A50030
:101E50007730A60020000430D100A230D200053037
:101E60002000EA0010302000E90010308A003820FD
:101E70008A150A12080020000430D100A230D200D6
:101E800005302000EA0010302000E90010308A0000
:101E900022208A150A1208002000F1131D308A0042
:101EA00060258A150A1200001D308A008B258A15CC
:0E1EB0000A12280000302206031D532F0800DE
:021EBE000034EE
:021EC0000034EC
:102000002000690823009100200068082300930045
:1020100023001513951315158B1355309600AA3010
:102020009600951423001511951814280800200017
:10203000690823009100230015139513151423003C
:102040001308080020005108850052088400200071
:10205000690823009100230015139513151423001C
:1020600013081A002000E90A2000EA0B27280800BC
:102070002000510885005208840000082000E80074
:1020800020006908230091002000680823009300C5
:1020900023001513951315158B1355309600AA3090
:1020A000960095142300151195185428151413083B
:1020B0000002031D3D28840A2000E90A2000EA0BE3
:0420C0003D280800AF
:10300000820757344F3417346F34473407347734DA
:1030100037345F340F3467343F347F342F341F34F8
:10302000A534D534CD349534ED34C5348534F534F8
:10303000B534DD348D34E534BD34FD34AD349D34E8
:10304000223452344A3412346A34423402347234F0
:1030500032345A340A3462343A347A342A341A34E0
:10306000263456344E3416346E34463406347634B0
:1030700036345E340E3466343E347E342E341E34A0
:10308000233453344B3413346B34433403347334A8
:1030900033345B340B3463343B347B342B341B3498
:1030A000A634D634CE349634EE34C6348634F63470
:1030B000B634DE348E34E634BE34FE34AE349E3460
:1030C000A734D734CF349734EF34C7348734F73448
:1030D000B734DF348F34E734BF34FF34AF349F3438
:1030E000253455344D3415346D3445340534753438
:1030F00035345D340D3465343D347D342D341D3428
:103100002134513449341134693441340134713437
:103110003134593409346134393479342934193427
:10312000A134D134C9349134E934C1348134F13417
:10313000B134D9348934E134B934F934A934993407
:10314000243454344C3414346C34443404347434DF
:1031500034345C340C3464343C347C342C341C34CF
:10316000A034D034C8349034E834C0348034F034DF
:10317000B034D8348834E034B834F834A8349834CF
:1031800020345034483410346834403400347034BF
:1031900030345834083460343834783428341834AF
:1031A000A334D334CB349334EB34C3348334F33487
:1031B000B334DB348B34E334BB34FB34AB349B3477
:1031C000A234D234CA349234EA34C2348234F2346F
:1031D000B234DA348A34E234BA34FA34AA349A345F
:1031E000A434D434CC349434EC34C4348434F4343F
:1031F000B434DC348C34E434BC34FC34AC349C342F
:103200008207C3348B34EB34D3349B34A3349334EC
:10321000F334FB34E334BB34B3348334CB34DB34A6
:10322000AE34C6348E34EE34D6349E34A63496345E
:10323000F634FE34E634BE34B6348634CE34DE346E
:103240002D3445340D346D3455341D342534153446
:1032500075347D3465343D34353405344D345D3456
:10326000A834C0348834E834D0349834A03490344E
:10327000F034F834E034B834B0348034C834D8345E
:10328000283440340834683450341834203410342E
:10329000703478346034383430340034483458343E
:1032A0002C3444340C346C3454341C3424341434EE
:1032B00074347C3464343C34343404344C345C34FE
:1032C000AC34C4348C34EC34D4349C34A4349434CE
:1032D000F434FC34E434BC34B4348434CC34DC34DE
:1032E000AF34C7348F34EF34D7349F34A734973496
:1032F000F734FF34E734BF34B7348734CF34DF34A6
:103300002F3447340F346F3457341F342734173475
:1033100077347F3467343F34373407344F345F3485
:103320002A3442340A346A3452341A34223412347D
:1033300072347A3462343A34323402344A345A348D
:103340002B3443340B346B3453341B342334133455
:1033500073347B3463343B34333403344B345B3465
:103360002E3446340E346E3456341E34263416341D
:1033700076347E3466343E34363406344E345E342D
:10338000AD34C5348D34ED34D5349D34A534953405
:10339000F534FD34E534BD34B5348534CD34DD3415
:1033A0002934413409346934513419342134113405
:1033B0007134793461343934313401344934593415
:1033C000AA34C2348A34EA34D2349A34A2349234DD
:1033D000F234FA34E234BA34B2348234CA34DA34ED
:1033E000A934C1348934E934D1349934A1349134C5
:1033F000F134F934E134B934B1348134C934D934D5
:10340000820762343A340A342A347A346A344234D1
:10341000223452344A34723402341A345A34123454
:10342000B534E534BD348D34AD34FD34ED34C534BC
:10343000A534D534CD34F53485349D34DD3495341C
:10344000353465343D340D342D347D346D3445349C
:10345000253455344D34753405341D345D341534FC
:1034600030346034383408342834783468344034A4
:103470002034503448347034003418345834103404
:10348000B334E334BB348B34AB34FB34EB34C3346C
:10349000A334D334CB34F33483349B34DB349334CC
:1034A000313461343934093429347934693441345C
:1034B00021345134493471340134193459341134BC
:1034C000B034E034B8348834A834F834E834C03444
:1034D000A034D034C834F03480349834D8349034A4
:1034E000B634E634BE348E34AE34FE34EE34C634F4
:1034F000A634D634CE34F63486349E34DE34963454
:10350000B134E134B9348934A934F934E934C134FB
:10351000A134D134C934F13481349934D93491345B
:10352000333463343B340B342B347B346B344334CB
:10353000233453344B34733403341B345B3413342B
:10354000343464343C340C342C347C346C344434A3
:10355000243454344C34743404341C345C34143403
:10356000B234E234BA348A34AA34FA34EA34C23493
:10357000A234D234CA34F23482349A34DA349234F3
:10358000B434E434BC348C34AC34FC34EC34C43463
:10359000A434D434CC34F43484349C34DC349434C3
:1035A000363466343E340E342E347E346E34463433
:1035B000263456344E34763406341E345E34163493
:1035C000B734E734BF348F34AF34FF34EF34C7340B
:1035D000A734D734CF34F73487349F34DF3497346B
:1035E000373467343F340F342F347F346F344734EB
:1035F000273457344F34773407341F345F3417344B
:103600008207D834A03488349834F834A834C834C5
:103610008034D034F034B834B034C0349034E03432
:10362000EF34DF34A7348F349F34FF34AF34CF34DA
:103630008734D734F734BF34B734C7349734E734DA
:10364000EE34DE34A6348E349E34FE34AE34CE34C2
:103650008634D634F634BE34B634C6349634E634C2
:1036600068345834203408341834783428344834D2
:1036700000345034703438343034403410346034D2
:10368000EA34DA34A2348A349A34FA34AA34CA34A2
:103690008234D234F234BA34B234C2349234E234A2
:1036A000EB34DB34A3348B349B34FB34AB34CB347A
:1036B0008334D334F334BB34B334C3349334E3347A
:1036C0006D345D3425340D341D347D342D344D344A
:1036D0000534553475343D3435344534153465344A
:1036E0006A345A3422340A341A347A342A344A3442
:1036F0000234523472343A34323442341234623442
:10370000EC34DC34A4348C349C34FC34AC34CC3411
:103710008434D434F434BC34B434C4349434E43411
:103720006934593421340934193479342934493409
:103730000134513471343934313441341134613409
:10374000E934D934A13489349934F934A934C934E9
:103750008134D134F134B934B134C1349134E134E9
:103760006F345F3427340F341F347F342F344F3499
:103770000734573477343F34373447341734673499
:103780006B345B3423340B341B347B342B344B3499
:103790000334533473343B34333443341334633499
:1037A000ED34DD34A5348D349D34FD34AD34CD3469
:1037B0008534D534F534BD34B534C5349534E53469
:1037C0006C345C3424340C341C347C342C344C3451
:1037D0000434543474343C34343444341434643451
:1037E0006E345E3426340E341E347E342E344E3421
:1037F0000634563476343E34363446341634663421
:103800008207893457341634B3341134F33498347E
:10381000063430347934C0349734A8341A345D34E3
:10382000D5342E340134DA3434347334D5343B3463
:10383000E8344B34C23477347E34DC346434AC3412
:10384000AF34200051088500520884000030870002
:103850002E30860020002030CE0012001E00CE0B3D
:103860002D2C080020000025002500251925200802
:103870002406A006A40621082506A106A5062208FE
:103880002606A206A60623082706A306A706080002
:1038900020000025002508002000002519251925F5
:1038A000192520082406A006A40621082506A1063D
:1038B000A50622082606A206A60623082706A306B2
:1038C000A7060800291001082007AA001400031801
:1038D000013E031829142107AB001400031C29180A
:1038E000013E2910031829142207AC001400031C00
:1038F0002918013E2307AD0098308A002730AA0816
:103900000319842C2A0300202806A606F839A606E7
:10391000A50699308A00AB30AB080319912C2B0314
:1039200000212806A706F839A706A6069A308A00BD
:103930003230AC0803199E2C2C0300222806A40662
:10394000F839A406A7069B308A00E830AD080319B1
:10395000AB2C2D0300232806A506F839A506A406DE
:103960000800291001082407AA0014000318013ECA
:10397000031829142507AB001400031C2918013E65
:103980002910031829142607AC001400031C291859
:10399000013E2707AD0098308A002730AA08031996
:1039A000D32C2A0300202806A206F839A206A10675
:1039B00099308A00AB30AB080319E02C2B030021AF
:1039C0002806A306F839A306A2069A308A003230E8
:1039D000AC080319ED2C2C0300222806A006F839A8
:1039E000A006A3069B308A00E830AD080319FA2C24
:1039F0002D0300232806A106F839A106A006080019
:103A00002E308600622432308600B12436308600A3
:103A100062243A308600B1243E308600622442306F
:103A20008600B1244630860062244A308600B124E4
:103A300008004A308600622446308600B1244230B5
:103A4000860062243E308600B1243A30860062242B
:103A500036308600B1243230860062242E30860053
:103A6000B1240800212420002030CE00200051087D
:103A70008500520884002000E7019C308A00200065
:103A80006708002400061A002000E70A2000CE0B79
:103A90003F2D00004F250800CE254F2508002000AF
:103AA0000430D60093253224A525D60B522D0800CC
:103AB000000021244F25080021244F250000080084
:103AC0002000F11B702D08302000CE000030870050
:103AD0005730860000301E002000CE0B6A2D0800F3
:103AE00029000830BA00003085005F3084000030C3
:103AF00087005730860012001E002900BA0B7B2D6C
:103B00000800EA2520000030D1005730D20093256C
:103B10004824A525080020000030D1005730D200ED
:103B200022260626080020000830CE00200051087A
:103B30008500520884000030870020308600120083
:103B40001E002000CE0B9F2D080020000830CE0064
:103B50002000510885005208840000308700203082
:103B6000860016001A002000CE0BB12D200005089B
:103B7000D1000408D200080020000830CE00200048
:103B800051088500520884000030870057308600B5
:103B900016001A002000CE0BC82D080020001E3091
:103BA000CE002000510885005208840000308700B4
:103BB0002E30860020001200D4001200D500120022
:103BC0001E002000CE0BDF2D200054081E005508DB
:103BD0008100080020000830CE0020004F0885003A
:103BE000500884000030870057308600120001061C
:103BF0001E002800A20BFD2D002E2000CE0BF62D5E
:103C000020000508CF000408D0000800200008307C
:103C1000CE0020004F088500500884000030870047
:103C200057308600160000061A002800A20B192E35
:103C30001C2E2000CE0B122E20000508CF000408F9
:0C3C4000D000080093253224A5250800C0
:020000040001F9
:02000E00E4EB21
:02001000FFDB14
:00000001FF
