:10000000480B0010611D00007D1D0000811D0000D7
:10001000851D0000891D00008D1D0000BE43FFEFFF
:10002000000000000000000000000000911D000022
:10003000951D000000000000991D0000910B0000BC
:10004000A11D0000A51D0000A91D0000AD1D0000A0
:10005000B11D00006D0A0000B91D0000BD1D0000AB
:10006000C11D0000C51D0000C91D0000CD1D000000
:10007000D11D0000D51D0000D91D0000DD1D0000B0
:10008000E11D0000E51D0000E91D0000ED1D000060
:10009000F11D0000F51D0000F91D0000FD1D000010
:1000A000011E0000051E0000091E00000D1E0000BC
:1000B000111E0000151E0000191E00001D1E00006C
:1000C000211E0000251E0000291E000000E1F5058C
:100300002DE9F84F04000D0000208DF800005FF08B
:10031000000E00215FF0000C012600275FF00008AE
:100320005FF00009DFF850A5DFF85025944203D1B3
:10033000062000F0DFFA16E0DFF84C158C4203D1FE
:10034000082000F0D7FA0EE0DFF834158C4203D114
:10035000302000F0CFFA06E0DFF828158C4202D1F9
:10036000322000F0C7FA0009012200E0521C102AD6
:1003700031D2002300E05B1C102B29D200FB02F1DC
:1003800013EB020CB1FBFCF1B1FBF5FCB1FBF5FE8C
:1003900005FB1E1E5FEA550BF34501D21CF1010C53
:1003A000BCF1030E4FF6FD7BDE45E4D2B1FBFCFE53
:1003B000754502D3B5EB0E0901E0BEEB0509D14549
:1003C000D9D216001F00E046CA46B9F1000FD2D1BB
:1003D000B9F1000FCAD1032000FB05F06421B0FB86
:1003E000F1F082452DD2DFF8A004844213D1207BA6
:1003F00050F0800020735FEA1820207184F800809C
:10040000207B10F07F00207317F00F0050EA0610D9
:10041000C0B2A06212E0207B50F0800020735FEA3F
:100420001820207184F80080207B10F07F0020735A
:1004300017F00F0050EA061084F8280001208DF80C
:1004400000009DF80000BDE8F28F38B504000D00F3
:10045000DFF82804844210D0DFF82C0484420CD04A
:10046000DFF81C04844208D0DFF81804844204D06A
:10047000BF21DFF8180400F0CBFA687900280DD00E
:10048000687901280AD06879022807D0687903289A
:1004900004D0C021DFF8F40300F0BAFAA8790028EC
:1004A00007D0A879012804D0C121DFF8E00300F0CB
:1004B000AFFA2879002810D0287901280DD02879A2
:1004C00002280AD02879032807D02879042804D0E4
:1004D000C221DFF8B80300F09BFADFF8A0038442E2
:1004E00003D10121082000F027FADFF89C038442A1
:1004F00003D10121102000F01FFADFF88C038442A1
:1005000026D1072020720020207200E02078207D74
:10051000C007FBD4802084F83000207D8006FCD505
:10052000002084F83000002060600020207300204C
:10053000206200202074002084F84C00002084F801
:100540005400002084F85000207E217D080018E02F
:10055000072020720020207200E02078207DC00754
:10056000FBD4802084F83000207D8006FCD500205C
:1005700084F830000020606000202073002020629A
:10058000207DDFF80003844202D1002084F824009B
:1005900029682000FFF7B4FEDFF8EC02844203D1A3
:1005A000207B10F0C00002E0207B10F0C0006979D1
:1005B000002903D0022905D001D306E007E050F05E
:1005C000010004E050F0020001E050F0030029793E
:1005D000002915D050F008002979012906D00FD341
:1005E000032907D003D3042907D009E008E050F01D
:1005F000100005E050F0200002E050F03000FFE76E
:10060000A979012902D150F00400FFE7DFF8781240
:100610008C4201D1207300E0207331BD4FF416519C
:100620000160032141710021017100218171704736
:1006300038B504000D00DFF84402844211D0DFF821
:10064000480284420DD0DFF83802844209D0DFF836
:100650003402844205D040F2CF11DFF8300200F0BE
:10066000D7F9DFF82402844201D1257000E025701B
:1006700031BD10B50400DFF80402844211D0DFF868
:10068000080284420DD0DFF8F801844209D0DFF877
:10069000F401844205D04FF4F471DFF8F00100F06A
:1006A000B7F9DFF8E401844201D1207800E0207836
:1006B00010BDF8B504000D001600DFF8C00184423B
:1006C00011D0DFF8C40184420DD0DFF8B4018442B8
:1006D00009D0DFF8B001844205D040F2A121DFF853
:1006E000AC0100F095F9F6B2002E08D0F6B2012E5A
:1006F00005D040F2A221DFF8940100F089F9EDB2B3
:10070000002D09D0022D0BD008D3042D0CD009D315
:10071000062D0ED00AD30EE001270CE002270AE0D6
:10072000042708E0082706E0802704E04FF48077DC
:1007300001E04FF40077DFF8500184421BD1EDB2A5
:10074000002D2DD0EDB2012D2AD0EDB2022D27D0F3
:10075000EDB2052D24D0EDB2062D21D0EDB2032D42
:100760001ED0EDB2042D1BD040F2BE21DFF81C01DB
:1007700000F04EF914E0EDB2002D11D0EDB2012DD4
:100780000ED0EDB2022D0BD0EDB2052D08D0EDB29A
:10079000062D05D040F2C221DFF8F00000F038F954
:1007A000F6B2012E0BD1DFF8E000844203D160687D
:1007B0003843606014E060683843606010E0DFF840
:1007C000C800844206D1606840F28F31B9430840C6
:1007D000606005E0606840F20731B943084060603E
:1007E000F1BD002181700021C17001210170012142
:1007F0004170704738B504000D00204884420DD088
:10080000214884420AD01E48844207D01D488442B1
:1008100004D04FF478711D4800F0FAF8EDB2002DC5
:1008200007D0EDB2012D04D040F2E131174800F0BD
:10083000EFF8EDB2012D10D11348844206D194F89F
:10084000300050F0800084F8300014E094F830005C
:1008500050F0800084F830000DE00B48844205D150
:1008600094F83000002184F8301004E094F830004F
:10087000002184F8301031BDA086010000C0004086
:100880000080094000C0094000000140A41C000095
:10089000202801D2020001E0B0F1200220280DD270
:1008A000314800680323934098432F4B18602E482B
:1008B0000068914008432C4908600CE02B48006810
:1008C000032393409843294B1860284800689140BF
:1008D0000843264908607047202802D22249096847
:1008E00002E020382149096831FA00F010F00301D4
:1008F0000800704738B504001D4805682000FFF760
:10090000EBFF002805D0022807D004D3032806D027
:100910000EE004200CE001200AE0022008E01A2C7E
:1009200003D01C2C01D01E2C01D1062000E0082091
:10093000B5FBF0F5280032BDC9B2012907D10D4938
:1009400009680D4A104008430A4908600AE0C9B224
:10095000002907D107490968074A32EA0000084020
:100960000449086070470000A8C10F40ACC10F40A7
:1009700000000010C4C00F40DEF7EFEF38B51024C0
:1009800000250CE01C48295C1C48FFF751FE44F68A
:1009900020600100481E0029FBD16D1C641E002C44
:1009A000F0D131BD80B500F094F800F024F900F0EA
:1009B00073F900F0CDF94FF47A7000F0BFF900F050
:1009C00093F80F483221017000F0F9F800F00EFAA8
:1009D00000F0B2F800F00AFA00F004FB00F0B6F8FC
:1009E00008480078FF28FBD100F08EFAFFF7C6FF19
:1009F00000F0ACF8F4E700000402001000C0004072
:100A0000410300104303001080B5FFF7CBFF02BD88
:100A1000FEE710B450F8041B81B102681218001DE3
:100A200050F8043BDC0744BFA9F10104E31852F875
:100A3000044B43F8044B091FF9D1EBE710BC704796
:100A400040B24109474A012310F01F0013FA00F099
:100A500042F82100704740B24109434A012310F097
:100A60001F0013FA00F042F82100704710B500F0A3
:100A700068F83E48002101703D480078002802D106
:100A80003C483D4901603D480078002803D13C487E
:100A9000FFF7EFFD040039480078002804D13448FE
:100AA0000078401C3249087034480078002807D18B
:100AB0003048006804702F480068401C2D490860C9
:100AC0002E480078002801D100F089F800F034F8B1
:100AD00010BD80B52B48002101702B48FFF79EFD0B
:100AE0002A48FFF77EFE01BD00B583B001208DF8D6
:100AF000020000208DF8040000208DF80300022081
:100B00008DF8010000208DF8000000A800F0F6FA32
:100B100003208DF8010000A800F0F0FA1A491848E7
:100B2000FFF793FC01211648FFF764FE0122002124
:100B30001348FFF7BEFD07BD80B50520FFF780FF16
:100B400001BD80B50520FFF786FF01BD80B50848CF
:100B50000021017009480021017000F044F801BD36
:100B60000000000000E100E080E100E0450300102B
:100B7000420300103C030010040100104303001066
:100B800000C00040410300102C0300103803001087
:100B900080B560480068401C5E4908605D48006898
:100BA0005D490978884209D35C480078002802D161
:100BB00000F019F802E05A48FF21017001BD80B52C
:100BC00000F0AEFA012000F0C9FB002000F0EFFBBE
:100BD000012000F009FC4F480021016001BD4D4893
:100BE00000210160704780B54A4800210160012062
:100BF00000F0DDFB01BD80B54A4801210170494884
:100C00004FF47A7141604848002101704648012143
:100C1000417045480121C17043480121817042481B
:100C20000021017140484FF47A7181603D4A0021F2
:100C30005FF0402000F0B5FC3B495FF0402000F041
:100C400082FD01BD80B53849886037495FF040209A
:100C500000F079FD5FF0402000F059FD01215FF0C8
:100C6000402000F033FD01BD80B500215FF0402041
:100C700000F063FC00215FF0402000F027FD01BD83
:100C800080B500215FF0402000F01EFC002801D05C
:100C9000012000E0002002BD80B524480121017040
:100CA0002248234941602348012101702148012144
:100CB000417020480121C1701E48012181701D48EA
:100CC000002101711B484FF47A718160174A00219D
:100CD000194800F066FC1749174800F034FD01BDC3
:100CE00080B5144988601349134800F02CFD124860
:100CF00000F00DFD0121104800F0E8FC01BD80B5B9
:100D000001210D4800F019FC00210B4800F0DEFC29
:100D100001BD000034030010410300104203001025
:100D2000430300101C0300100403001024030010F0
:100D3000A0860100100300100080004080B5FFF77E
:100D400081FFFFF79DFF0028FBD0FFF78DFF01BD5E
:100D500000B583B000208DF8020002208DF800005D
:100D600008208DF8010000A800F0C8F901224FF416
:100D70008071022000F081FD4FF48071022000F0AC
:100D800098FD04208DF8010000A800F0B7F90022BA
:100D90001021022000F071FD03208DF802000020D8
:100DA0008DF8010000208DF8000002208DF803006E
:100DB00001208DF8040000A800F0A0F901208DF8B2
:100DC000010000A800F09AF907BD50F8041B61B1BA
:100DD00050F8042BD30744BFA9F101039A1800234C
:100DE00042F8043B091FFAD1EFE7704700B589B01C
:100DF00003208DF8020000208DF8040000208DF8FB
:100E000003000F208DF8010000208DF8000000A8DD
:100E100000F074F911208DF8010000A800F06EF9BF
:100E200012208DF8010000A800F068F900208DF86C
:100E3000020010208DF8010000A800F05FF90122E7
:100E40005FF48031002000F018FD5FF48031002055
:100E500000F026FD02208DF800000D208DF8010025
:100E600000A800F04BF900224FF40051022000F0DE
:100E700004FD4FF4006002900020039010200490C5
:100E800020200590002006901B48079002A91B48CF
:100E900000F042FD09B000BD80B500280AD0322024
:100EA00000E0401E0028FCD15FF48031002000F0FB
:100EB000F7FC09E05FF48031002000F0FAFC3220FA
:100EC00000E0401E0028FCD101BD81B00C49C0B239
:100ED00008600C48006800900006FAD532200090A7
:100EE00002E00098401E009000980028F9D10448C4
:100EF0000068C0B201B0704700093D000000024028
:100F00000800024004000240F8B56427434C444DF9
:100F100040F6C410FFF7E4FEFF2200213F4800F036
:100F20002BFDFF2200213E4800F026FD0020FFF7A8
:100F3000B3FF3C480068002809D00120FFF7ACFF50
:100F4000384800680028FBD10020FFF7A5FF0026E5
:100F50000DE032273800471E80B20028FAD1F6B2E1
:100F60003148305CFFF7B1FF28706D1C761C2F48AC
:100F70000078F6B28642ECD32D48002101700120A2
:100F8000FFF78AFFFFF7BBFE264800680028FBD06A
:100F9000244800680028FBD140F6C410FFF7A0FEEB
:100FA0000020FFF779FF0020FFF78FFF012611E0F7
:100FB0003000C0B2FFF789FF2070641C1C48007825
:100FC000401C1B49087032273800471E80B2002899
:100FD000FAD1761CF6B2FF2EEAD10120FFF75CFFB2
:100FE0000120F2BD80B5134800210170114800783E
:100FF000400704D400F0CAFC0028F7D1FAE700F05B
:10100000E8FC0028FBD00B480078400704D500F02E
:10101000BDFC0028F7D1FAE701BD00000402001072
:1010200004000010B40A3823040100104203001029
:10103000400300104403001070B4C9B2C0B24000B5
:101040002B4B102901D31039401C53F820400325A5
:101050000E00F6B27600B540AC4343F8204053F89A
:101060002040D2B2C9B2490012FA01F1214343F83B
:10107000201070BC704770B4C9B2C0B240001D4BA4
:10108000102901D31039401C53F8204003250E00CD
:10109000F6B27600B540AC4343F8204053F8204008
:1010A000D2B2C9B2490012FA01F1214343F820102B
:1010B00070BC704710B4104BD2B2012A0AD1C0B232
:1010C00053F82020012414FA01F11143C0B243F86F
:1010D00020100AE0C0B253F82020012414FA01F1D4
:1010E00032EA0101C0B243F8201010BC7047000082
:1010F00000C0024040C0024068C0024010B5040079
:10110000A27861782078FFF797FFE27861782078FD
:10111000FFF7B1FF227961782078FFF7CBFF10BD90
:1011200076480068C0F30160032850D17448006815
:1011300010F00300002804D0022830D018D3032870
:101140006ED16E4800684004400C401C6D49484315
:101150006A490968C1F30741491CB0FBF1F06A49CB
:101160000968C9B2491CB0FBF1F06849086057E052
:10117000624800684004400C401C654948435F4990
:101180000968C1F30741491CB0FBF1F05E490968E9
:10119000C9B2491CB0FBF1F05C49086040E0574817
:1011A00000684004400C401C5FF4803148435349C0
:1011B0000968C1F30741491CB0FBF1F052490968C5
:1011C000C9B2491CB0FBF1F05049086028E04C4816
:1011D000006810F00300002804D0022816D00BD3BA
:1011E00003281DD14B4848490968C9B2491CB0FBC6
:1011F000F1F04649086013E0474843490968C9B21D
:10120000491CB0FBF1F04149086009E04FF400408F
:101210003D490968C9B2491CB0FBF1F03B4908607F
:1012200070473E48202101603C480068800603D595
:101230003A4800684006FBD533480321016038482E
:10124000002101603748002101602D480121016023
:101250003548364901603648AA2101603448552195
:1012600001603448012101603148AA210160304801
:1012700055210160214800684001FBD52D4803211C
:1012800001602B48AA2101602948552101601B48B3
:10129000006810F0407FFAD02748232101602748DA
:1012A000AA210160254855210160254801210160DE
:1012B0002248AA2101602148552101602148006887
:1012C0004005FBD51E48032101601C48AA2101608E
:1012D0001A48552101601B48006810F4407FFAD07D
:1012E00019481A4901601A4800210160194843F25F
:1012F0003A010160184800210160704788C00F4022
:101300000CC10F4000127A0004C10F400000001011
:1013100000366E0100093D00001BB700A0C10F4060
:10132000A8C10F40ACC10F4084C00F40630005004E
:101330008CC00F4080C00F40A4C00F40ACC00F4015
:10134000A0C00F40A8C00F40C4C00F40DE872804D3
:10135000C8C10F4000C00F4008ED00E070B50400A8
:10136000304805682F4800684FF47A71B0FBF1F0FF
:101370005FF08071B1FBF0F000F07AFB0600200016
:1013800000F076FB0100300000F082FB00D2FEE7A7
:101390002548006850F00400234908604FF47A7033
:1013A000B5FBF0F06043401E2049086070BD10B5E9
:1013B0000400E4B2002C06D0E4B2012C03D0792161
:1013C0001B48FFF725FBE4B2012C06D11648006844
:1013D00050F001001449086005E013480068400817
:1013E00040001149086010BD10B50400E4B2002CA3
:1013F00006D0E4B2012C03D08C210D48FFF708FB86
:10140000E4B2012C06D10848006850F002000649F9
:10141000086005E00448006830F0020002490860F6
:1014200010BD00000000001010E000E014E000E03B
:10143000101C000080B50100002905D002290BD046
:1014400006D303290CD00EE00220FFF753FA0AE07E
:101450000420FFF74FFA06E02C20FFF74BFA02E0DA
:101460002E20FFF747FA02BD38B50C00FFF7E2FF68
:10147000020000230025A4FB020104FB031105FB6D
:101480000211DFF8B423002300F014FB02000B006C
:10149000100032BD5FF0FF31B0F1402F01D10021CB
:1014A00010E0DFF89823904201D101210AE0DFF833
:1014B0009023904201D1022104E0DFF8882390427A
:1014C00000D103210800704738B504000D00B4F1C5
:1014D000402F10D0DFF8640384420CD0DFF86003A3
:1014E000844208D0DFF85C03844204D09F21DFF8F7
:1014F0005803FFF78DFAEDB2002D13D0EDB2012D98
:1015000010D0EDB2022D0DD0EDB2032D0AD0EDB208
:10151000042D07D0EDB2052D04D0A021DFF828035B
:10152000FFF776FA20680121A9400840C0B20028E0
:1015300001D0012000E0002032BD38B504000D00CC
:10154000B4F1402F10D0DFF8F40284420CD0DFF861
:10155000F002844208D0DFF8EC02844204D0D621A5
:10156000DFF8E402FFF754FAEDB2002D13D0EDB22C
:10157000012D10D0EDB2022D0DD0EDB2032D0AD009
:10158000EDB2042D07D0EDB2052D04D0D721DFF840
:10159000B802FFF73DFA20680121A9400843206006
:1015A00031BD70B504000D001600B4F1402F11D00C
:1015B000DFF8880284420DD0DFF88402844209D02B
:1015C000DFF88002844205D04FF49271DFF8780290
:1015D000FFF71EFAEDB2002D0ED0EDB2012D0BD0AB
:1015E000EDB2012D08D0EDB2012D05D040F225114C
:1015F000DFF85402FFF70CFAB4F1402F08D10121B3
:101600000220FFF799F900210220FFF741F927E0B6
:10161000DFF82802844208D101210420FFF78CF969
:1016200000210420FFF734F91AE0DFF814028442A5
:1016300009D101215FF48000FFF77EF900212C2001
:10164000FFF726F90CE0DFF8FC01844208D1012104
:101650005FF40000FFF770F900212E20FFF718F962
:10166000A06A80088000A062A06AA0620020A0603A
:10167000002020610020E060606850F0020060609F
:10168000606830F002006060EDB2002D0FD130785C
:10169000002803D17068401EE06013E02000FFF7CF
:1016A000F9FE7168FFF7E0FE401EE0600AE0A06A04
:1016B00030F00C00A0627078012803D1A06A50F0CD
:1016C0000400A0625FF0FF30206070BD38B50400F8
:1016D0000D00B4F1402F0DD0584884420AD058482C
:1016E000844207D05748844204D04FF4C77156480B
:1016F000FFF78EF9EDB2012D04D1606850F00100C2
:10170000606003E0606840084000606031BD10B573
:101710000400B4F1402F0DD0484884420AD0484814
:10172000844207D04748844204D04FF4D3714648DE
:10173000FFF76EF9606850F002006060606830F09A
:101740000200606010BD38B504000D00B4F1402FF8
:101750000DD03A4884420AD03948844207D03948EB
:10176000844204D040F2C5113748FFF751F9287977
:1017700000280DD0287901280AD02879022807D01E
:101780002879032804D04FF4E3712F48FFF740F97C
:101790002878002805D0022846D042D3032846D016
:1017A00048E0A868A061606907212A7803235A43AA
:1017B0009140884360616878002807D06069012102
:1017C0002A7803235A43914008436061E87800284F
:1017D00008D0606901212A7803235A43521C9140A2
:1017E00008436061A878002808D0606901212A7840
:1017F00003235A43921C914008436061E06B03212C
:101800002A785200121D91408843E063E06B2979E9
:1018100011F003012A785200121D91400843E06341
:1018200031BDA868E061BEE7A8682062BBE7A86890
:101830006062B8E7FEE7000040420F000080004011
:101840000000094000400940741C00000021C0B2A3
:10185000002806D0022808D005D3042809D006D3D2
:1018600009E0184907E0184905E0184903E018495C
:1018700001E01849FFE70800704738B50C00150073
:10188000C0B2FFF7E3FF002809D0EDB2002D03D06E
:1018900001682143016002E00168A143016031BD9C
:1018A00010B50C00C0B2FFF7D1FF002800D0846152
:1018B00010BD10B50C00C0B2FFF7C8FF002800D063
:1018C000C46110BD00C0092020C0092040C009200B
:1018D00060C0092080C0092038B504000D00DFF881
:1018E0009000844204D03A21DFF88800FFF790F896
:1018F000DFF87C00844208D11020FEF7FBFF0821AE
:1019000001FB05F2824201D303E004E0891CFE29B9
:10191000F6D3C8B2E06031BD38B504000D001448FC
:10192000844203D07C211348FFF772F810488442A8
:101930001DD101214FF48070FEF7FEFF6868A96891
:1019400008432969084329680843E968084340F6C1
:10195000FC71084050F00400206069692000FFF726
:10196000BBFFE069C00701D50120E06131BDFDE7A3
:1019700000000240441C000010B5040010000A00E2
:101980000100200000F00EF9200010BD80B5DFF846
:10199000D40004210170DFF8D00002210170DFF8CB
:1019A000C80001214170DFF8C00005218170DFF817
:1019B000B8000421C170FFF7A7FA002807D0DFF8AC
:1019C000A000DFF8A81009780170012000E00020D5
:1019D00002BD70B54FF4005400250EE04840317050
:1019E000761C491CC9B24029F8DB3070761C1D48B2
:1019F00046210170FFF788FA6D1CA54214D21A4ED9
:101A000002203070761C43203070761C0D20307020
:101A1000761C4E20290048403170761C290A484027
:101A20003170761C0021DDE70F4E02203070761CED
:101A300003203070761C0D203070761C0E202100A3
:101A400048403170761C210A48403170761C307055
:101A5000761C044806210170FFF756FA012070BD7C
:101A600044030010420300100401001004000010A1
:101A7000002800BF0AD0B0FA80F18840D1F19D0162
:101A8000C905020672F1004241EB102070470000C8
:101A90004FF0807C1CEB400F94BF1CEB410F05E026
:101AA00040EA010C5FEA4C0C01D28842704718BF33
:101AB000814270471B4213D1094236D12AB1844674
:101AC000B0FBF2F002FB10C2704700F09FB8FCD3ED
:101AD0000022002370470B00020000210020704705
:101AE000904271EB030CF6D370B5B1FA81F4B3FAFE
:101AF00083F52C1BA340C4F1200532FA05F63343CD
:101B0000A2405FF00046E64002E05B085FEA320276
:101B1000841A71EB030524BF204629467641F4D38D
:101B200002000B003000002170BD012ACFD970B532
:101B3000140C20D0B1FA81F4B2FA82F5C4F1200479
:101B40006419B4F12006D6D3B2405FF00044F440EB
:101B5000002502E052085FEA3303C61A71EB020E59
:101B600024BF3046714664416D41F3D302000B003F
:101B70002000290070BD0C46B1FBF2F102FB1145BB
:101B80002D0445EA1045B5FBF2F402FB145580B272
:101B900040EA0545B5FBF2F002FB105240EA044072
:101BA00070BD000062F30F2262F31F42401810F074
:101BB000030308D0C91A1FD3DB0748BF00F8012D63
:101BC00028BF20F8022D130030B4144615461039F2
:101BD00028BF20E93C00FAD8490728BF20E90C00BB
:101BE00048BF40F8042D890028BF20F8022D48BFC7
:101BF00000F8012D30BC7047C91818BF00F8012D3E
:101C0000CB0728BF00F8012D704700007047000087
:101C1000433A5C414B5C454B4C5A5F414C4B4F5CEB
:101C2000447269766572735C736F757263655C6C20
:101C30007063313778785F7379737469636B2E637F
:101C400000000000433A5C414B5C454B4C5A5F41FD
:101C50004C4B4F5C447269766572735C736F75723E
:101C600063655C6C7063313778785F7370692E637D
:101C700000000000433A5C414B5C454B4C5A5F41CD
:101C80004C4B4F5C447269766572735C736F75720E
:101C900063655C6C7063313778785F74696D657209
:101CA0002E630000433A5C414B5C454B4C5A5F410C
:101CB0004C4B4F5C447269766572735C736F7572DE
:101CC00063655C6C7063313778785F756172742E10
:101CD0006300000010B5074979441831064C7C4474
:101CE000163404E00A68081D511888470146A142CD
:101CF000F8D110BD0800000028000000CFF0FFFF61
:101D000044030000040000100000000007EDFFFF86
:101D100004000000B8E3FFFF000000100000000016
:101D200000F009F8002801D0FFF7D4FF0020FEF7EB
:101D30006BFE00F002F80120704700F001B80000CF
:101D40000746384600F002F8FBE7000080B5C046C1
:101D5000C046024A11001820ABBEFBE72600020075
:101D6000014880470148004723120000711D000010
:101D7000C046C046C046C046FFF7D2FFFFF7FEBFD1
:101D8000FFF7FEBFFFF7FEBFFFF7FEBFFFF7FEBF87
:101D9000FFF7FEBFFFF7FEBFFFF7FEBFFEF7F8BE7F
:101DA000FFF7FEBFFFF7FEBFFFF7FEBFFFF7FEBF67
:101DB000FFF7FEBFFEF75ABEFFF7FEBFFFF7FEBFFD
:101DC000FFF7FEBFFFF7FEBFFFF7FEBFFFF7FEBF47
:101DD000FFF7FEBFFFF7FEBFFFF7FEBFFFF7FEBF37
:101DE000FFF7FEBFFFF7FEBFFFF7FEBFFFF7FEBF27
:101DF000FFF7FEBFFFF7FEBFFFF7FEBFFFF7FEBF17
:101E0000FFF7FEBFFFF7FEBFFFF7FEBFFFF7FEBF06
:101E1000FFF7FEBFFFF7FEBFFFF7FEBFFFF7FEBFF6
:0C1E2000FFF7FEBFFFF7FEBFFFF7FEBF9D
:0400000500001D7169
:00000001FF
