:10000000500A0010152000003120000035200000AB
:10001000392000003D200000412000007E34FFEF29
:10002000000000000000000000000000452000006B
:1000300049200000000000004D200000910B00004E
:1000400055200000592000005D20000061200000C4
:10005000652000006D0A00006D2000007120000086
:1000600075200000792000006D1D00008120000037
:1000700085200000892000008D20000091200000D4
:1000800095200000992000009D200000A120000084
:10009000A5200000A9200000AD200000B120000034
:1000A000B5200000B9200000BD200000C1200000E4
:1000B000C5200000C9200000CD200000D120000094
:1000C000D5200000D9200000DD20000000E1F5056A
:100300002DE9F84F04000D0000208DF800005FF08B
:10031000000E00215FF0000C012600275FF00008AE
:100320005FF00009DFF850A5DFF85025944203D1B3
:10033000062000F0DFFA16E0DFF84C158C4203D1FE
:10034000082000F0D7FA0EE0DFF834158C4203D114
:10035000302000F0CFFA06E0DFF828158C4202D1F9
:10036000322000F0C7FA0009012200E0521C102AD6
:1003700031D2002300E05B1C102B29D200FB02F1DC
:1003800013EB020CB1FBFCF1B1FBF5FCB1FBF5FE8C
:1003900005FB1E1E5FEA550BF34501D21CF1010C53
:1003A000BCF1030E4FF6FD7BDE45E4D2B1FBFCFE53
:1003B000754502D3B5EB0E0901E0BEEB0509D14549
:1003C000D9D216001F00E046CA46B9F1000FD2D1BB
:1003D000B9F1000FCAD1032000FB05F06421B0FB86
:1003E000F1F082452DD2DFF8A004844213D1207BA6
:1003F00050F0800020735FEA1820207184F800809C
:10040000207B10F07F00207317F00F0050EA0610D9
:10041000C0B2A06212E0207B50F0800020735FEA3F
:100420001820207184F80080207B10F07F0020735A
:1004300017F00F0050EA061084F8280001208DF80C
:1004400000009DF80000BDE8F28F38B504000D00F3
:10045000DFF82804844210D0DFF82C0484420CD04A
:10046000DFF81C04844208D0DFF81804844204D06A
:10047000BF21DFF8180400F0CBFA687900280DD00E
:10048000687901280AD06879022807D0687903289A
:1004900004D0C021DFF8F40300F0BAFAA8790028EC
:1004A00007D0A879012804D0C121DFF8E00300F0CB
:1004B000AFFA2879002810D0287901280DD02879A2
:1004C00002280AD02879032807D02879042804D0E4
:1004D000C221DFF8B80300F09BFADFF8A0038442E2
:1004E00003D10121082000F027FADFF89C038442A1
:1004F00003D10121102000F01FFADFF88C038442A1
:1005000026D1072020720020207200E02078207D74
:10051000C007FBD4802084F83000207D8006FCD505
:10052000002084F83000002060600020207300204C
:10053000206200202074002084F84C00002084F801
:100540005400002084F85000207E217D080018E02F
:10055000072020720020207200E02078207DC00754
:10056000FBD4802084F83000207D8006FCD500205C
:1005700084F830000020606000202073002020629A
:10058000207DDFF80003844202D1002084F824009B
:1005900029682000FFF7B4FEDFF8EC02844203D1A3
:1005A000207B10F0C00002E0207B10F0C0006979D1
:1005B000002903D0022905D001D306E007E050F05E
:1005C000010004E050F0020001E050F0030029793E
:1005D000002915D050F008002979012906D00FD341
:1005E000032907D003D3042907D009E008E050F01D
:1005F000100005E050F0200002E050F03000FFE76E
:10060000A979012902D150F00400FFE7DFF8781240
:100610008C4201D1207300E0207331BD4FF416519C
:100620000160032141710021017100218171704736
:1006300038B504000D00DFF84402844211D0DFF821
:10064000480284420DD0DFF83802844209D0DFF836
:100650003402844205D040F2CF11DFF8300200F0BE
:10066000D7F9DFF82402844201D1257000E025701B
:1006700031BD10B50400DFF80402844211D0DFF868
:10068000080284420DD0DFF8F801844209D0DFF877
:10069000F401844205D04FF4F471DFF8F00100F06A
:1006A000B7F9DFF8E401844201D1207800E0207836
:1006B00010BDF8B504000D001600DFF8C00184423B
:1006C00011D0DFF8C40184420DD0DFF8B4018442B8
:1006D00009D0DFF8B001844205D040F2A121DFF853
:1006E000AC0100F095F9F6B2002E08D0F6B2012E5A
:1006F00005D040F2A221DFF8940100F089F9EDB2B3
:10070000002D09D0022D0BD008D3042D0CD009D315
:10071000062D0ED00AD30EE001270CE002270AE0D6
:10072000042708E0082706E0802704E04FF48077DC
:1007300001E04FF40077DFF8500184421BD1EDB2A5
:10074000002D2DD0EDB2012D2AD0EDB2022D27D0F3
:10075000EDB2052D24D0EDB2062D21D0EDB2032D42
:100760001ED0EDB2042D1BD040F2BE21DFF81C01DB
:1007700000F04EF914E0EDB2002D11D0EDB2012DD4
:100780000ED0EDB2022D0BD0EDB2052D08D0EDB29A
:10079000062D05D040F2C221DFF8F00000F038F954
:1007A000F6B2012E0BD1DFF8E000844203D160687D
:1007B0003843606014E060683843606010E0DFF840
:1007C000C800844206D1606840F28F31B9430840C6
:1007D000606005E0606840F20731B943084060603E
:1007E000F1BD002181700021C17001210170012142
:1007F0004170704738B504000D00204884420DD088
:10080000214884420AD01E48844207D01D488442B1
:1008100004D04FF478711D4800F0FAF8EDB2002DC5
:1008200007D0EDB2012D04D040F2E131174800F0BD
:10083000EFF8EDB2012D10D11348844206D194F89F
:10084000300050F0800084F8300014E094F830005C
:1008500050F0800084F830000DE00B48844205D150
:1008600094F83000002184F8301004E094F830004F
:10087000002184F8301031BDA086010000C0004086
:100880000080094000C0094000000140581F0000DE
:10089000202801D2020001E0B0F1200220280DD270
:1008A000314800680323934098432F4B18602E482B
:1008B0000068914008432C4908600CE02B48006810
:1008C000032393409843294B1860284800689140BF
:1008D0000843264908607047202802D22249096847
:1008E00002E020382149096831FA00F010F00301D4
:1008F0000800704738B504001D4805682000FFF760
:10090000EBFF002805D0022807D004D3032806D027
:100910000EE004200CE001200AE0022008E01A2C7E
:1009200003D01C2C01D01E2C01D1062000E0082091
:10093000B5FBF0F5280032BDC9B2012907D10D4938
:1009400009680D4A104008430A4908600AE0C9B224
:10095000002907D107490968074A32EA0000084020
:100960000449086070470000A8C10F40ACC10F40A7
:1009700000000010C4C00F40DEF7EFEF38B50924C7
:1009800000250CE01C48295C1C48FFF751FE44F68A
:1009900020600100481E0029FBD16D1C641E002C44
:1009A000F0D131BD80B500F094F800F024F900F0EA
:1009B00073F900F0D7F94FF47A7000F0C9F900F03C
:1009C00093F80F483221017000F0F9F800F018FA9E
:1009D00000F0B2F800F014FA00F002FB00F0B6F8F4
:1009E00008480078FF28FBD100F098FA00F0AEF834
:1009F000FFF7C4FFF4E700000401001000C000404E
:100A0000440200104602001080B5FFF7CBFF02BD84
:100A1000FEE710B450F8041B81B102681218001DE3
:100A200050F8043BDC0744BFA9F10104E31852F875
:100A3000044B43F8044B091FF9D1EBE710BC704796
:100A400040B24109474A012310F01F0013FA00F099
:100A500042F82100704740B24109434A012310F097
:100A60001F0013FA00F042F82100704710B500F0A3
:100A700068F83E48002101703D480078002802D106
:100A80003C483D4901603D480078002803D13C487E
:100A9000FFF7EFFD040039480078002804D13448FE
:100AA0000078401C3249087034480078002807D18B
:100AB0003048006804702F480068401C2D490860C9
:100AC0002E480078002801D100F089F800F034F8B1
:100AD00010BD80B52B48002101702B48FFF79EFD0B
:100AE0002A48FFF77EFE01BD00B583B001208DF8D6
:100AF000020000208DF8040000208DF80300022081
:100B00008DF8010000208DF8000000A800F0F4FA34
:100B100003208DF8010000A800F0EEFA1A491848E9
:100B2000FFF793FC01211648FFF764FE0122002124
:100B30001348FFF7BEFD07BD80B50520FFF780FF16
:100B400001BD80B50520FFF786FF01BD80B50848CF
:100B50000021017009480021017000F044F801BD36
:100B60000000000000E100E080E100E04802001029
:100B7000450200103C020010040000104602001064
:100B800000C00040440200102C0200103802001087
:100B900080B565480068401C634908606248006889
:100BA00062490978884209D361480078002802D157
:100BB00000F019F802E05F48FF21017001BD80B527
:100BC00000F0ACFA012000F0C7FB002000F0EDFBC4
:100BD000012000F007FC54480021016001BD52488B
:100BE00000210160704780B54F480021016001205D
:100BF00000F0DBFB01BD80B54F48012101704E487C
:100C00004FF47A7141604D48002101704B48012139
:100C100041704A480121C17048480121817047480C
:100C20000021017145484FF47A718160424A0021E8
:100C30005FF0402000F0B3FC40495FF0402000F03E
:100C400080FD01BD80B53D4988603C495FF0402092
:100C500000F077FD5FF0402000F057FD01215FF0CC
:100C6000402000F031FD01BD80B500215FF0402043
:100C700000F061FC00215FF0402000F025FD01BD87
:100C800080B500215FF0402000F01CFC002801D05E
:100C9000012000E0002002BD80B52948012101703B
:100CA0002748284941602848012101702648012130
:100CB000417025480121C1702348012181702248DB
:100CC0000021017120484FF47A7181601C4A002193
:100CD0001E4800F064FC1C491C4800F032FD01BDB8
:100CE00080B5194988601849184800F02AFD17484E
:100CF00000F00BFD0121154800F0E6FC01BD80B5B8
:100D00000121124800F017FC0021104800F0DCFC23
:100D100001BD80B501210D4800F0D4FB002801D0B1
:100D2000012000E0002002BD340200104402001047
:100D300045020010460200101C02001004020010C0
:100D400024020010A0860100100200100080004064
:100D500080B5FFF777FFFFF793FF0028FBD0FFF781
:100D600083FF01BD00B583B000208DF80200022092
:100D70008DF8000008208DF8010000A800F0BCF9F3
:100D800001224FF48071022000F075FD4FF4807154
:100D9000022000F08CFD04208DF8010000A800F076
:100DA000ABF900221021022000F065FD03208DF830
:100DB000020000208DF8010000208DF800000220C4
:100DC0008DF8030001208DF8040000A800F094F9CC
:100DD00001208DF8010000A800F08EF907BD50F841
:100DE000041B61B150F8042BD30744BFA9F10103E0
:100DF0009A18002342F8043B091FFAD1EFE7704725
:100E000000B589B003208DF8020000208DF80400A1
:100E100000208DF803000F208DF8010000208DF8D0
:100E2000000000A800F068F911208DF8010000A86A
:100E300000F062F912208DF8010000A800F05CF9C2
:100E400000208DF8020010208DF8010000A800F0AD
:100E500053F901225FF48031002000F00CFD5FF4B3
:100E60008031002000F01AFD02208DF800000D20D6
:100E70008DF8010000A800F03FF900224FF4005166
:100E8000022000F0F8FC4FF4006002900020039074
:100E90001020049020200590002006901B48079009
:100EA00002A91B4800F036FD09B000BD80B500283E
:100EB0000AD0322000E0401E0028FCD15FF48031CF
:100EC000002000F0EBFC09E05FF48031002000F02E
:100ED000EEFC322000E0401E0028FCD101BD81B0B4
:100EE0000C49C0B208600C48006800900006FAD5B2
:100EF0003220009002E00098401E009000980028E8
:100F0000F9D104480068C0B201B0704700093D0043
:100F100000000240080002400400024070B5642650
:100F20003F4C40F6C410FFF7DBFEFF2200213C4897
:100F300000F020FD0020FFF7B9FF3A4800680028C4
:100F400009D00120FFF7B2FF364800680028FBD126
:100F50000020FFF7ABFF00250BE032263000461ED5
:100F600080B20028FAD1EDB22F48285CFFF7B7FF16
:100F70006D1C2E480078EDB28542EED30120FFF7BC
:100F800095FFFFF7BCFE274800680028FBD02548E6
:100F900000680028FBD140F6C410FFF7A1FE002036
:100FA000FFF784FF0020FFF79AFF012500E06D1C8A
:100FB000EDB2FF2D0FD02800C0B2FFF790FF2070D8
:100FC000641C32263000461E80B20028FAD1154833
:100FD00000680028EBD00120FFF768FF012070BDFA
:100FE00080B513480021017011480078400705D4EE
:100FF0000A2000F0DCFC0028F6D1F9E742F210707C
:1010000000F023FD0028F9D009480078400705D5F5
:101010000A2000F0CCFC0028F6D1F9E701BD000061
:1010200004010010B40A3823040000104502001027
:101030004702001070B4C9B2C0B240002B4B102957
:1010400001D31039401C53F8204003250E00F6B29E
:101050007600B540AC4343F8204053F82040D2B26C
:10106000C9B2490012FA01F1214343F8201070BCC3
:10107000704770B4C9B2C0B240001D4B102901D3F3
:101080001039401C53F8204003250E00F6B27600BC
:10109000B540AC4343F8204053F82040D2B2C9B227
:1010A000490012FA01F1214343F8201070BC704747
:1010B00010B4104BD2B2012A0AD1C0B253F820208A
:1010C000012414FA01F11143C0B243F820100AE0E0
:1010D000C0B253F82020012414FA01F132EA0101D0
:1010E000C0B243F8201010BC7047000000C002409E
:1010F00040C0024068C0024010B50400A278617888
:101100002078FFF797FFE27861782078FFF7B1FF4A
:10111000227961782078FFF7CBFF10BD7648006810
:10112000C0F30160032850D17448006810F0030038
:10113000002804D0022830D018D303286ED16E487E
:1011400000684004400C401C6D4948436A490968E6
:10115000C1F30741491CB0FBF1F06A490968C9B203
:10116000491CB0FBF1F06849086057E0624800682C
:101170004004400C401C654948435F490968C1F37D
:101180000741491CB0FBF1F05E490968C9B2491C2E
:10119000B0FBF1F05C49086040E05748006840044B
:1011A000400C401C5FF48031484353490968C1F347
:1011B0000741491CB0FBF1F052490968C9B2491C0A
:1011C000B0FBF1F05049086028E04C48006810F08E
:1011D0000300002804D0022816D00BD303281DD109
:1011E0004B4848490968C9B2491CB0FBF1F046496F
:1011F000086013E0474843490968C9B2491CB0FB7D
:10120000F1F04149086009E04FF400403D490968A8
:10121000C9B2491CB0FBF1F03B49086070473E4839
:10122000202101603C480068800603D53A480068E8
:101230004006FBD533480321016038480021016096
:101240003748002101602D480121016035483649A9
:1012500001603648AA2101603448552101603448B4
:10126000012101603148AA21016030485521016007
:10127000214800684001FBD52D48032101602B481F
:10128000AA2101602948552101601B48006810F01F
:10129000407FFAD02748232101602748AA21016016
:1012A0002548552101602548012101602248AA21D5
:1012B0000160214855210160214800684005FBD5A7
:1012C0001E48032101601C48AA2101601A485521CB
:1012D00001601B48006810F4407FFAD019481A4991
:1012E00001601A4800210160194843F23A01016087
:1012F000184800210160704788C00F400CC10F40A2
:1013000000127A0004C10F400000001000366E0188
:1013100000093D00001BB700A0C10F40A8C10F404D
:10132000ACC10F4084C00F40630005008CC00F406B
:1013300080C00F40A4C00F40ACC00F40A0C00F4001
:10134000A8C00F40C4C00F40DE872804C8C10F40AA
:1013500000C00F4008ED00E070B50400304805689B
:101360002F4800684FF47A71B0FBF1F05FF08071A4
:10137000B1FBF0F000F02AFC0600200000F026FC93
:101380000100300000F032FC00D2FEE72548006882
:1013900050F00400234908604FF47A70B5FBF0F078
:1013A0006043401E2049086070BD10B50400E4B2DF
:1013B000002C06D0E4B2012C03D079211B48FFF7A2
:1013C00027FBE4B2012C06D11648006850F001005A
:1013D0001449086005E013480068400840001149BE
:1013E000086010BD10B50400E4B2002C06D0E4B2D1
:1013F000012C03D08C210D48FFF70AFBE4B2012C2D
:1014000006D10848006850F002000649086005E06F
:101410000448006830F002000249086010BD000076
:101420000000001010E000E014E000E0C41E000026
:1014300080B50100002905D002290BD006D303296D
:101440000CD00EE00220FFF755FA0AE00420FFF767
:1014500051FA06E02C20FFF74DFA02E02E20FFF7AC
:1014600049FA02BD38B50C00FFF7E2FF0200002385
:101470000025A4FB020104FB031105FB0211DFF8A8
:10148000B423002300F0C4FB02000B00100032BDA7
:101490005FF0FF31B0F1402F01D1002110E0DFF803
:1014A0009823904201D101210AE0DFF89023904275
:1014B00001D1022104E0DFF88823904200D103210A
:1014C0000800704738B504000D00B4F1402F10D06B
:1014D000DFF8640384420CD0DFF86003844208D054
:1014E000DFF85C03844204D09F21DFF85803FFF744
:1014F0008FFAEDB2002D13D0EDB2012D10D0EDB268
:10150000022D0DD0EDB2032D0AD0EDB2042D07D07F
:10151000EDB2052D04D0A021DFF82803FFF778FAFB
:1015200020680121A9400840C0B2002801D0012054
:1015300000E0002032BD38B504000D00B4F1402FAA
:1015400010D0DFF8F40284420CD0DFF8F0028442BD
:1015500008D0DFF8EC02844204D0D621DFF8E402A0
:10156000FFF756FAEDB2002D13D0EDB2012D10D0D9
:10157000EDB2022D0DD0EDB2032D0AD0EDB2042D47
:1015800007D0EDB2052D04D0D721DFF8B802FFF760
:101590003FFA20680121A9400843206031BD70B5A1
:1015A00004000D001600B4F1402F11D0DFF88802BE
:1015B00084420DD0DFF88402844209D0DFF8800233
:1015C000844205D04FF49271DFF87802FFF720FAD9
:1015D000EDB2002D0ED0EDB2012D0BD0EDB2012DEC
:1015E00008D0EDB2012D05D040F22511DFF85402EC
:1015F000FFF70EFAB4F1402F08D101210220FFF7C6
:101600009BF900210220FFF743F927E0DFF82802C9
:10161000844208D101210420FFF78EF90021042023
:10162000FFF736F91AE0DFF81402844209D10121EC
:101630005FF48000FFF780F900212C20FFF728F9E4
:101640000CE0DFF8FC01844208D101215FF40000C6
:10165000FFF772F900212E20FFF71AF9A06A80081F
:101660008000A062A06AA0620020A060002020612B
:101670000020E060606850F002006060606830F058
:1016800002006060EDB2002D0FD13078002803D148
:101690007068401EE06013E02000FFF7F9FE7168FB
:1016A000FFF7E0FE401EE0600AE0A06A30F00C00A8
:1016B000A0627078012803D1A06A50F00400A062F3
:1016C0005FF0FF30206070BD38B504000D00B4F14C
:1016D000402F0DD0584884420AD05848844207D041
:1016E0005748844204D04FF4C7715648FFF790F929
:1016F000EDB2012D04D1606850F00100606003E09C
:10170000606840084000606031BD10B50400B4F16D
:10171000402F0DD0484884420AD04848844207D020
:101720004748844204D04FF4D3714648FFF770F91C
:10173000606850F002006060606830F00200606035
:1017400010BD38B504000D00B4F1402F0DD03A485B
:1017500084420AD03948844207D03948844204D0B0
:1017600040F2C5113748FFF753F9287900280DD00A
:10177000287901280AD02879022807D02879032857
:1017800004D04FF4E3712F48FFF742F9287800287E
:1017900005D0022846D042D3032846D048E0A868A6
:1017A000A061606907212A7803235A439140884346
:1017B00060616878002807D0606901212A780323D6
:1017C0005A43914008436061E878002808D0606976
:1017D00001212A7803235A43521C91400843606137
:1017E000A878002808D0606901212A7803235A4389
:1017F000921C914008436061E06B03212A785200FB
:10180000121D91408843E063E06B297911F00301D8
:101810002A785200121D91400843E06331BDA86848
:10182000E061BEE7A8682062BBE7A8686062B8E72D
:10183000FEE7000040420F00008000400000094029
:1018400000400940281F00000021C0B2002806D037
:10185000022808D005D3042809D006D309E0184986
:1018600007E0184905E0184903E0184901E0184964
:10187000FFE70800704738B50C001500C0B2FFF74D
:10188000E3FF002809D0EDB2002D03D00168214309
:10189000016002E00168A143016031BD10B50C0098
:1018A000C0B2FFF7D1FF002800D0846110BD10B591
:1018B0000C00C0B2FFF7C8FF002800D0C46110BD03
:1018C00000C0092020C0092040C0092060C00920B4
:1018D00080C0092038B504000D00DFF89000844274
:1018E00004D03A21DFF88800FFF792F8DFF87C0097
:1018F000844208D11020FEF7FDFF082101FB05F20C
:10190000824201D303E004E0891CFE29F6D3C8B269
:10191000E06031BD38B504000D001448844203D0A6
:101920007C211348FFF774F8104884421DD101212F
:101930004FF48070FFF700F86868A96808432969C8
:10194000084329680843E968084340F6FC710840E9
:1019500050F00400206069692000FFF7BBFFE069D8
:10196000C00701D50120E06131BDFDE70000024064
:10197000F81E000010B5040010000A00010020004D
:1019800000F0BEF9200010BD80B5DFF83402006819
:1019900000280AD0FFF7BDF90028F6D0FFF7AFF90D
:1019A0000120FFF783FA002000E0012002BD70B59E
:1019B0000400322500262000FFF792F9FFF7E4FF2C
:1019C000002801D100203FE00020FFF76FFA02203D
:1019D000FFF785FADFF8EC1108700120FFF77FFAB6
:1019E0000520FFF77CFA0420FFF779FA0120FFF7C2
:1019F0005DFAFFF784F9FFF7C7FF0028FBD020004E
:101A0000FFF76EF9FFF7C0FF002801D100201BE0AF
:101A10000020FFF74BFA002608E03000C0B2FFF7C5
:101A20005EFADFF8A4117054761C6D1E002D05D0EF
:101A3000FFF7AAFF0028F0D1002005E00120FFF702
:101A400035FAFFF75CF9012070BDF8B54FF4005787
:101A5000FFF746F900250FE020004640C0B2FFF72F
:101A60003EFA641C402CF7D33000C0B2FFF737FABF
:101A70000120FFF71BFA6D1CBD4250D2FFF784FF17
:101A8000002801D100209AE00020FFF70FFA022081
:101A9000FFF725FA4B4908704320FFF720FA0D2085
:101AA000FFF71DFA4E2628004640C0B2FFF717FA8E
:101AB000280A4640C0B2FFF712FA002405E02000D1
:101AC0004640C0B2FFF70BFA641C402CF7D330003D
:101AD000C0B2FFF704FA0120FFF7E8F9FFF754FF5F
:101AE000002801D100206AE00020FFF7DFF9022082
:101AF000FFF7F5F9334908704320FFF7F0F90D209F
:101B0000FFF7EDF94E2628004640C0B2FFF7E7F98F
:101B1000280A4640C0B2FFF7E2F90024A2E73D00E0
:101B2000FFF732FF002801D1002048E00020FFF736
:101B3000BDF90220FFF7D3F9224908700320FFF70F
:101B4000CEF90D20FFF7CBF90E2628004640C0B293
:101B5000FFF7C5F9280A4640C0B2FFF7C0F93000C8
:101B6000C0B2FFF7BCF90120FFF7A0F9FFF70CFFA7
:101B7000002801D1002022E00020FFF797F9022081
:101B8000FFF7ADF90F4908700320FFF7A8F90D2002
:101B9000FFF7A5F90E2628004640C0B2FFF79FF9CF
:101BA000280A4640C0B2FFF79AF93000C0B2FFF7EA
:101BB00096F90120FFF77AF9FFF7A1F80120F2BDAD
:101BC000B40A38234702001004010010002800BFA7
:101BD0000AD0B0FA80F18840D1F19D01C905020612
:101BE00072F1004241EB1020704700004FF0807C02
:101BF0001CEB400F94BF1CEB410F05E040EA010CC9
:101C00005FEA4C0C01D28842704718BF814270478E
:101C10001B4213D1094236D12AB18446B0FBF2F0FF
:101C200002FB10C2704700F09FB8FCD300220023D3
:101C300070470B000200002100207047904271EBBA
:101C4000030CF6D370B5B1FA81F4B3FA83F52C1B0B
:101C5000A340C4F1200532FA05F63343A2405FF0F9
:101C60000046E64002E05B085FEA3202841A71EB4C
:101C7000030524BF204629467641F4D302000B0019
:101C80003000002170BD012ACFD970B5140C20D0CE
:101C9000B1FA81F4B2FA82F5C4F120046419B4F106
:101CA0002006D6D3B2405FF00044F440002502E0A5
:101CB00052085FEA3303C61A71EB020E24BF3046A6
:101CC000714664416D41F3D302000B0020002900EE
:101CD00070BD0C46B1FBF2F102FB11452D0445EA43
:101CE0001045B5FBF2F402FB145580B240EA0545FD
:101CF000B5FBF2F002FB105240EA044070BD000058
:101D000062F30F2262F31F42401810F0030308D061
:101D1000C91A1FD3DB0748BF00F8012D28BF20F8E0
:101D2000022D130030B414461546103928BF20E99F
:101D30003C00FAD8490728BF20E90C0048BF40F80A
:101D4000042D890028BF20F8022D48BF00F8012D7E
:101D500030BC7047C91818BF00F8012DCB0728BF49
:101D600000F8012D70470000704700004D48012128
:101D700001704D48006810F0F800C0B2F82803D197
:101D80004A48082101608CE0C0B260281AD070284F
:101D900018D0802820D088283BD090281CD09828A4
:101DA00037D0A0283BD0A82840D0B8284CD0C02895
:101DB0006DD0F82872D13E48042101603B480821CB
:101DC00001606EE03B480021016039480421016058
:101DD00036480821016064E03748006835490968E1
:101DE000364A885433480068401C324908603148FC
:101DF000006832494978C91C884203D12B480C211C
:101E000001604EE02A480421016028480821016051
:101E100047E02648082101602748006841E024483F
:101E2000042101602148082101603AE02148012194
:101E3000016021482249097801601D4804210160A0
:101E40001A48082101602CE01A4800681C494978AA
:101E5000C91C884211D2174800681949405C1649CC
:101E6000086014480068401C1249086010480421AA
:101E700001600E480821016013E00E480068104917
:101E8000405C0D49086009480C21016009E00848E0
:101E90000421016005482821016002E0034828214F
:101EA000016070474802001004C0014018C00140A2
:101EB00000C001404002001008C0014004000010B2
:101EC00004010010433A5C414B5C454B4C5A5F4166
:101ED0004C4B4F5C447269766572735C736F7572BC
:101EE00063655C6C7063313778785F73797374699C
:101EF000636B2E6300000000433A5C414B5C454B32
:101F00004C5A5F414C4B4F5C447269766572735C0E
:101F1000736F757263655C6C7063313778785F736B
:101F200070692E6300000000433A5C414B5C454BF6
:101F30004C5A5F414C4B4F5C447269766572735CDE
:101F4000736F757263655C6C7063313778785F743A
:101F5000696D65722E630000433A5C414B5C454BF2
:101F60004C5A5F414C4B4F5C447269766572735CAE
:101F7000736F757263655C6C7063313778785F7509
:101F80006172742E6300000010B50749794418315E
:101F9000064C7C44163404E00A68081D5118884732
:101FA0000146A142F8D110BD080000002800000041
:101FB0002FEEFFFF480200000400001000000000A8
:101FC00053EAFFFF0400000004E1FFFF00000010DF
:101FD0000000000000F009F8002801D0FFF7D4FF4E
:101FE0000020FEF711FD00F002F80120704700F01C
:101FF00001B800000746384600F002F8FBE7000091
:1020000080B5C046C046024A11001820ABBEFBE7AF
:102010002600020001488047014800471F120000C7
:1020200025200000C046C046C046C046FFF7D2FF8C
:10203000FFF7FEBFFFF7FEBFFFF7FEBFFFF7FEBFD4
:10204000FFF7FEBFFFF7FEBFFFF7FEBFFFF7FEBFC4
:10205000FEF79EBDFFF7FEBFFFF7FEBFFFF7FEBF17
:10206000FFF7FEBFFFF7FEBFFEF700BDFFF7FEBFA5
:10207000FFF7FEBFFFF7FEBFFFF7FEBFFFF776BE1D
:10208000FFF7FEBFFFF7FEBFFFF7FEBFFFF7FEBF84
:10209000FFF7FEBFFFF7FEBFFFF7FEBFFFF7FEBF74
:1020A000FFF7FEBFFFF7FEBFFFF7FEBFFFF7FEBF64
:1020B000FFF7FEBFFFF7FEBFFFF7FEBFFFF7FEBF54
:1020C000FFF7FEBFFFF7FEBFFFF7FEBFFFF7FEBF44
:1020D000FFF7FEBFFFF7FEBFFFF7FEBFFFF7FEBF34
:0400000500002025B2
:00000001FF
